:100000000C9462000C948A000C948A000C948A0070
:100010000C948A000C948A000C948A000C948A0038
:100020000C948A000C948A000C948A000C948A0028
:100030000C948A000C948A000C948A000C948A0018
:100040000C94D6010C948A000C9490040C94C20475
:100050000C948A000C948A000C948A000C948A00F8
:100060000C948A000C948A00000000080002010031
:100070000003040700000000000000000102040863
:100080001020408001020408102001020408102002
:10009000040404040404040402020202020203032E
:1000A00003030303000000002300260029000000D2
:1000B0000000250028002B0000000000240027007D
:1000C0002A00F20411241FBECFEFD8E0DEBFCDBF5F
:1000D00011E0A0E0B1E0EAE2F1E102C005900D928A
:1000E000AE33B107D9F721E0AEE3B1E001C01D9214
:1000F000AE3FB207E1F710E0C4ECD0E004C02297B5
:10010000FE010E948008C23CD107C9F70E94200767
:100110000C9493080C940000CF92DF92EF92FF9220
:10012000CF93DF9382E00E942203EC010E942C0215
:100130006B017C0180914A0190914B01A0914C018F
:10014000B0914D01C81AD90AEA0AFB0A20E034E24C
:1001500044E759E460914201709143018091440168
:10016000909145010E94EE070E942F076C157D05B6
:100170008E059F0540F460E085E00E94EC0260E09F
:1001800089E00E94EC028091520190915301C817BE
:10019000D90791F00E942C026093460170934701A9
:1001A000809348019093490160934E0170934F01F1
:1001B00080935001909351010E942C02C0904601FF
:1001C000D0904701E0904801F09049016C197D09F9
:1001D0008E099F09C0900601D0900701E0900801A8
:1001E000F0900901C616D706E806F90608F072C0B5
:1001F0008091540190915501C817D90709F46AC03C
:10020000D0935501C09354016C2F88E00E94EC02FA
:100210008091540190915501019709F05BC06AE00B
:1002200071E081E691E00E94730540914E0150918A
:100230004F0160915001709151012AE030E081E658
:1002400091E00E9400060E942C026B017C018091CB
:100250004A0190914B01A0914C01B0914D01C81AF7
:10026000D90AEA0AFB0A20E034E244E759E4609143
:100270003E0170913F0180914001909141010E94A7
:10028000EE070E942F076C157D058E059F0510F562
:1002900061E085E00E94EC0261E089E00E94EC02EE
:1002A0000E942C0260934A0170934B0180934C0191
:1002B00090934D016EE071E081E691E00E9473053C
:1002C0000E942C02AB01BC012AE030E081E691E003
:1002D0000E940006D0935301C0935201DF91CF9149
:1002E000FF90EF90DF90CF90089560E082E00E9451
:1002F000B30261E085E00E94B30261E088E00E9401
:10030000B30261E089E00E94B3026091560185E08A
:100310000E94EC0260E089E00E94EC0226E040E8E6
:1003200055E260E070E081E691E00E942E0462E117
:1003300071E081E691E00E94800581E691E00E94F3
:100340007C0561E681E691E00E94920581E691E0FC
:100350000E9464038136D1F781E691E00E94A703F1
:1003600081E691E00E944B0318161906CCF741E094
:1003700060E070E081E691E00E94830660933E01B8
:1003800070933F01809340019093410141E060E010
:1003900070E081E691E00E948306609342017093D1
:1003A0004301809344019093450108951F920F9259
:1003B0000FB60F9211242F933F938F939F93AF9378
:1003C000BF938091590190915A01A0915B01B09126
:1003D0005C013091580123E0230F2D3720F4019662
:1003E000A11DB11D05C026E8230F0296A11DB11D58
:1003F000209358018093590190935A01A0935B0177
:10040000B0935C0180915D0190915E01A0915F01CC
:10041000B09160010196A11DB11D80935D01909383
:100420005E01A0935F01B0936001BF91AF919F9176
:100430008F913F912F910F900FBE0F901F901895A5
:100440002FB7F8946091590170915A0180915B0126
:1004500090915C012FBF08953FB7F89480915D01A2
:1004600090915E01A0915F01B091600126B5A89BBB
:1004700005C02F3F19F00196A11DB11D3FBF662792
:10048000782F892F9A2F620F711D811D911D42E0D7
:10049000660F771F881F991F4A95D1F708957894A2
:1004A00084B5826084BD84B5816084BD85B5826079
:1004B00085BD85B5816085BDEEE6F0E08081816017
:1004C0008083E1E8F0E01082808182608083808117
:1004D00081608083E0E8F0E0808181608083E1EBEF
:1004E000F0E0808184608083E0EBF0E080818160D7
:1004F0008083EAE7F0E0808184608083808182608D
:100500008083808181608083808180688083109275
:10051000C1000895833081F028F4813099F0823051
:10052000A1F008958730A9F08830B9F08430D1F473
:10053000809180008F7D03C0809180008F778093B1
:100540008000089584B58F7702C084B58F7D84BD07
:1005500008958091B0008F7703C08091B0008F7DA7
:100560008093B0000895CF93DF9390E0FC01E458AE
:10057000FF4F2491FC01E057FF4F8491882349F1FC
:1005800090E0880F991FFC01E854FF4FA591B491AA
:1005900082559F4FFC01C591D4919FB7611108C04E
:1005A000F8948C91209582238C93888182230AC0B1
:1005B000623051F4F8948C91322F309583238C93D0
:1005C0008881822B888304C0F8948C91822B8C9331
:1005D0009FBFDF91CF9108950F931F93CF93DF9328
:1005E0001F92CDB7DEB7282F30E0F901E859FF4F51
:1005F0008491F901E458FF4F1491F901E057FF4F3E
:1006000004910023C9F0882321F069830E948A02A3
:100610006981E02FF0E0EE0FFF1FE255FF4FA5913B
:10062000B4919FB7F8948C91611103C01095812308
:1006300001C0812B8C939FBF0F90DF91CF911F91B1
:100640000F910895CF93DF93282F30E0F901E859F7
:10065000FF4F8491F901E458FF4FD491F901E0571D
:10066000FF4FC491CC2391F081110E948A02EC2F9C
:10067000F0E0EE0FFF1FEC55FF4FA591B4912C91C8
:100680002D2381E090E021F480E002C080E090E042
:10069000DF91CF910895FC01818D228D90E0805CE7
:1006A0009F4F821B91098F7399270895FC01918DAB
:1006B000828D981731F0828DE80FF11D858D90E0C5
:1006C00008958FEF9FEF0895FC01918D828D98170B
:1006D00061F0828DDF01A80FB11D5D968C91928D26
:1006E0009F5F9F73928F90E008958FEF9FEF089523
:1006F00088EE94E0892B49F080E090E0892B29F086
:100700000E94E80481110C9400000895FC01848D7E
:10071000DF01A80FB11DA35ABF4F2C91848D90E02B
:1007200001968F739927848FA689B7892C93A08906
:10073000B1898C9180648C93938D848D981306C0BD
:100740000288F389E02D80818F7D80830895CF9387
:10075000DF93EC01888D8823C9F0EA89FB898081C9
:1007600085FD05C0A889B9898C9186FD0FC00FB69B
:1007700007FCF5CF808185FFF2CFA889B9898C91DC
:1007800085FFEDCFCE010E948603E7CFDF91CF91A9
:100790000895CF92DF92FF920F931F93CF93DF9331
:1007A0001F92CDB7DEB76C0181E0D60158968C93CD
:1007B00058975B969C915B975C968C915C9798138D
:1007C00007C05096ED91FC915197808185FD2EC018
:1007D000F601038D10E00F5F1F4F0F731127F02EEE
:1007E000F601848DF81211C00FB607FCF9CFD601BF
:1007F0005096ED91FC915197808185FFF1CFC60114
:1008000069830E9486036981EBCF838DE80FF11D18
:10081000E35AFF4F6083D6015B960C935B97529629
:10082000ED91FC915397808180620CC0D601569661
:10083000ED91FC91579760835096ED91FC91519703
:1008400080818064808381E090E00F90DF91CF9180
:100850001F910F91FF90DF90CF900895BF92CF929C
:10086000DF92EF92FF92CF93DF93EC016A017B015D
:10087000B22EE889F98982E08083411581EE58071C
:1008800061057105A1F060E079E08DE390E0A701DA
:1008900096010E945108215031094109510956958C
:1008A000479537952795211580E1380798F0E88915
:1008B000F989108260E874E88EE190E0A701960162
:1008C0000E94510821503109410951095695479517
:1008D00037952795EC85FD853083EE85FF85208350
:1008E000188EEC89FD89B082EA89FB89808180615C
:1008F0008083EA89FB89808188608083EA89FB891B
:10090000808180688083EA89FB8980818F7D8083F4
:10091000DF91CF91FF90EF90DF90CF90BF9008953F
:100920001F920F920FB60F9211242F938F939F93C4
:10093000EF93FF93E0917101F09172018081E0915A
:100940007701F091780182FD12C0908180917A0147
:100950008F5F8F7320917B01821751F0E0917A01B4
:10096000F0E0EF59FE4F958F80937A0101C08081AE
:10097000FF91EF919F918F912F910F900FBE0F904C
:100980001F9018951F920F920FB60F9211242F935C
:100990003F934F935F936F937F938F939F93AF9307
:1009A000BF93EF93FF9381E691E00E948603FF914E
:1009B000EF91BF91AF919F918F917F916F915F91D7
:1009C0004F913F912F910F900FBE0F901F90189550
:1009D00081E691E00E944B0321E0892B09F420E09D
:1009E000822F0895109264011092630188EE93E0C3
:1009F000A0E0B0E08093650190936601A093670149
:100A0000B093680182E291E090936201809361016A
:100A100085EC90E090936E0180936D0184EC90E002
:100A20009093700180936F0180EC90E0909372013D
:100A30008093710181EC90E0909374018093730135
:100A400082EC90E0909376018093750186EC90E0C3
:100A5000909378018093770110927A0110927B0134
:100A600010927C0110927D010895CF92DF92EF9257
:100A7000FF920F931F93CF93DF937C016A01EB01E9
:100A800000E010E00C151D0571F06991D701ED91A2
:100A9000FC910190F081E02DC7010995892B19F097
:100AA0000F5F1F4FEFCFC801DF91CF911F910F91C3
:100AB000FF90EF90DF90CF9008956115710581F060
:100AC000DB010D900020E9F7AD0141505109461BB3
:100AD000570BDC01ED91FC910280F381E02D09942C
:100AE00080E090E008950C945D05DC01ED91FC91AF
:100AF0000190F081E02D09946EE271E00C945D05A7
:100B00000F931F93CF93DF93EC010E945D058C013F
:100B1000CE010E947C05800F911FDF91CF911F9124
:100B20000F9108950F931F93CF93DF93EC010E94D1
:100B300075058C01CE010E947C05800F911FDF910D
:100B4000CF911F910F9108958F929F92AF92BF9274
:100B5000DF92EF92FF920F931F93CF93DF93CDB766
:100B6000DEB7A1970FB6F894DEBF0FBECDBF7C01F4
:100B7000F42FD52ECB0119A2223008F42AE08E01E1
:100B80000F5D1F4F822E912CA12CB12C6F2F7D2D2C
:100B9000A50194010E945108F22FD32ECA010150E1
:100BA00011096A3014F4E0E301C0E7E3E60FD8016D
:100BB000EC93232B242B252B49F7B801C7010E9466
:100BC0005D05A1960FB6F894DEBF0FBECDBFDF91D5
:100BD000CF911F910F91FF90EF90DF90BF90AF905A
:100BE0009F908F9008952115310541F4DC01ED911E
:100BF000FC910190F081E02D642F09940C94A405E0
:100C00000F931F93CF93DF93EC010E94F3058C01A8
:100C1000CE010E947C05800F911FDF91CF911F9123
:100C20000F9108950F931F93CF93DF93EC010E94D0
:100C30002002688779878A879B87E881F981008409
:100C4000F185E02DCE01099597FF15C00E94200285
:100C5000088519852A853B85601B710B820B930BD8
:100C60000C811D812E813F816017710782079307D8
:100C700020F38FEF9FEFDF91CF911F910F91089598
:100C8000FF920F931F93CF93DF93EC018B01F42E10
:100C9000CE010E9412069C0197FD28C08D3291055D
:100CA00019F1C0970A9710F1FF2019F02E32310583
:100CB000F9F001301105F9F00230110569F42D3019
:100CC000310551F034F4295031092230310520F03A
:100CD00012C02032310579F4E881F9810680F7816C
:100CE000E02DCE010995D4CF8DE203C0C90105C026
:100CF0008EE290E002C08FEF9FEFDF91CF911F91C6
:100D00000F91FF9008956F927F928F929F92AF9272
:100D1000BF92CF92DF92EF92FF920F931F93CF93E8
:100D2000DF93EC01042F41E00E944006FC0197FD97
:100D300074C0812C912C80E8A82E8FE3B82EC12C92
:100D4000D12C7601712C612C112707FD1095E0172D
:100D5000F10791F1ED32F10551F1EE32F10551F16A
:100D6000CF01C0970A9740F5AAE0B0E0A70196012D
:100D70000E9473086B017C01CF01AA2797FDA09503
:100D8000BA2FC80ED91EEA1EFB1E80E3C81AD1086E
:100D9000E108F108772081F02DEC3CEC4CEC5DE3B0
:100DA000C501B4010E94EE074B015C0105C0662439
:100DB000639402C077247394E881F9810680F781F7
:100DC000E02DCE010995CE010E941206FC01C097CC
:100DD0000A9708F4BCCFEE32F10519F4772009F434
:100DE000B6CFE017F10709F4B2CF662041F0F094D6
:100DF000E094D094C094C11CD11CE11CF11CC7012B
:100E0000B601772039F00E946207A50194010E9483
:100E1000EE0706C00E94620703C060E070E0CB01ED
:100E2000DF91CF911F910F91FF90EF90DF90CF90C6
:100E3000BF90AF909F908F907F906F90089508958E
:100E40000E944F020E941F070E947501C8E7D3E06D
:100E50000E948C002097E1F30E947803F9CF04D020
:100E60006894B111B5C0089598D088F09F5790F05C
:100E7000B92F9927B751A0F0D1F0660F771F881FBF
:100E8000991F1AF0BA95C9F712C0B13081F09FD0FE
:100E9000B1E008959CC0672F782F8827B85F39F09C
:100EA000B93FCCF3869577956795B395D9F73EF41E
:100EB00090958095709561957F4F8F4F9F4F0895C6
:100EC000E89409C097FB3EF49095809570956195E4
:100ED0007F4F8F4F9F4F9923A9F0F92F96E9BB279A
:100EE0009395F695879577956795B795F111F8CF16
:100EF000FAF4BB0F11F460FF1BC06F5F7F4F8F4F81
:100F00009F4F16C0882311F096E911C0772321F076
:100F10009EE8872F762F05C0662371F096E8862F0E
:100F200070E060E02AF09A95660F771F881FDAF765
:100F3000880F9695879597F9089597F99F6780E8A8
:100F400070E060E008959FEF80EC089500240A941B
:100F50001616170618060906089500240A94121694
:100F60001306140605060895092E0394000C11F4C7
:100F7000882352F0BB0F40F4BF2B11F460FF04C074
:100F80006F5F7F4F8F4F9F4F089557FD9058440FCD
:100F9000551F59F05F3F71F04795880F97FB991FD8
:100FA00061F09F3F79F08795089512161306140695
:100FB000551FF2CF4695F1DF08C016161706180622
:100FC000991FF1CF86957105610508940895E894FD
:100FD000BB2766277727CB0197F908950BD0C4CF9D
:100FE000B5DF28F0BADF18F0952309F0A6CFABCF14
:100FF0001124EECFCADFA0F3959FD1F3950F50E0F7
:10100000551F629FF001729FBB27F00DB11D639FBA
:10101000AA27F00DB11DAA1F649F6627B00DA11D60
:10102000661F829F2227B00DA11D621F739FB00D06
:10103000A11D621F839FA00D611D221F749F332776
:10104000A00D611D231F849F600D211D822F762F0F
:101050006A2F11249F5750408AF0E1F088234AF00C
:10106000EE0FFF1FBB1F661F771F881F9150504058
:10107000A9F79E3F510570F060CFAACF5F3FECF318
:10108000983EDCF3869577956795B795F795E79544
:101090009F5FC1F7FE2B880F911D9695879597F955
:1010A0000895A1E21A2EAA1BBB1BFD010DC0AA1FA9
:1010B000BB1FEE1FFF1FA217B307E407F50720F0C1
:1010C000A21BB30BE40BF50B661F771F881F991F3C
:1010D0001A9469F760957095809590959B01AC0185
:1010E000BD01CF0108950E948408A59F900DB49F73
:1010F000900DA49F800D911D11240895EE0FFF1FE8
:101100000590F491E02D0994A29FB001B39FC00116
:10111000A39F700D811D1124911DB29F700D811D23
:0A1120001124911D0895F894FFCFEB
:10112A000000FE018000581B000031202000302002
:10113A0020005374617274696E672E2E2E000000AF
:10114A000000C90335054B0364035603A7030D0AC0
:0E115A00006E616E00696E66006F76660000C2
:00000001FF
