:100000000C9462000C948A000C948A000C948A0070
:100010000C948A000C948A000C948A000C948A0038
:100020000C948A000C948A000C948A000C948A0028
:100030000C948A000C948A000C948A000C948A0018
:100040000C94D7030C948A000C94A5030C947F03A2
:100050000C948A000C948A000C948A000C948A00F8
:100060000C948A000C948A000000000024002700F1
:100070002A0000000000250028002B0000000000DE
:1000800023002600290004040404040404040202DA
:100090000202020203030303030301020408102007
:1000A0004080010204081020010204081020000012
:1000B0000008000201000003040700000000000027
:1000C0000000E10511241FBECFEFD8E0DEBFCDBF99
:1000D00011E0A0E0B1E0E0E1FFE002C005900D9288
:1000E000A832B107D9F721E0A8E2B1E001C01D9222
:1000F000A63EB207E1F710E0C2E6D0E004C02197C7
:10010000FE010E943006C136D107C9F70E942104C2
:100110000C9486070C9400002FB7F8948091450149
:1001200090914601A0914701B09148012FBF809363
:10013000510190935201A0935301B0935401E09167
:100140004901F0914A010084F185E02D89E491E0B4
:10015000099597FF26C02FB7F8948091450190919B
:100160004601A0914701B09148012FBF4091510134
:10017000509152016091530170915401841B950B71
:10018000A60BB70B40914D0150914E0160914F016C
:100190007091500184179507A607B70780F28FEF7B
:1001A0009FEF08958F929F92AF92BF92CF92DF926E
:1001B000EF92FF92CF93DF930E948C00FC0197FD9A
:1001C00014C08D329105A9F0C0970A9790F0EE32D5
:1001D000F10579F0E0914901F0914A010680F7813B
:1001E000E02D89E491E00995E7CF60E070E0CB0174
:1001F00073C0812C912C80E8A82E8FE3B82EC12CDF
:10020000D12C7601C0E0D0E0E130F10569F1ED32AA
:10021000F10539F1EE32F10531F1CF01C0970A97BE
:1002200018F5AAE0B0E0A70196010E946C076F01E3
:10023000FF0FEE08FF08C60ED71EE81EF91E80E36A
:10024000C81AD108E108F108CC2371F02DEC3CEC80
:100250004CEC5DE3C501B4010E94AE064B015C01AC
:1002600003C0D1E001C0C1E0E0914901F0914A0131
:100270000680F781E02D89E491E009950E948C00C9
:10028000FC01C0970A9708F4BFCFEE32F10519F4CC
:10029000C1111FC0B9CFE130F10509F4B5CFDD239D
:1002A00041F0F094E094D094C094C11CD11CE11CA6
:1002B000F11CCC2349F0C701B6010E947306A501C9
:1002C00094010E94AE0608C0C701B6010E947306E1
:1002D00003C0D111E6CFEFCFDF91CF91FF90EF9028
:1002E000DF90CF90BF90AF909F908F900895CF9266
:1002F000DF92EF92FF920F931F93CF93DF936C01E6
:100300007A018B01C0E0D0E0CE15DF0589F0D8017D
:100310006D918D01D601ED91FC910190F081E02D60
:10032000C6010995892B11F47E0102C02196ECCFFC
:10033000C701DF91CF911F910F91FF90EF90DF9058
:10034000CF900895FC01918D828D981761F0828D78
:10035000DF01A80FB11D5D968C91928D9F5F9F73F9
:10036000928F90E008958FEF9FEF0895FC01918D9B
:10037000828D981731F0828DE80FF11D858D90E008
:1003800008958FEF9FEF0895FC01918D228D892FA5
:1003900090E0805C9F4F821B91098F73992708958D
:1003A00089E491E00E94C40121E0892B09F420E056
:1003B000822F0895FC01848DDF01A80FB11DA35A7F
:1003C000BF4F2C91848D90E001968F739927848F75
:1003D000A689B7892C93A089B1898C9180648C936C
:1003E000938D848D981306C00288F389E02D808157
:1003F0008F7D80830895EF92FF920F931F93CF9389
:10040000DF93EC0181E0888F9B8D8C8D981305C064
:10041000E889F989808185FD24C0F62E0B8D10E0D6
:100420000F5F1F4F0F731127E02E8C8DE8120CC049
:100430000FB607FCFACFE889F989808185FFF5CFEF
:10044000CE010E94DA01F1CF8B8DFE01E80FF11D84
:10045000E35AFF4FF0820B8FEA89FB89808180622B
:1004600007C0EE89FF896083E889F989808180640B
:10047000808381E090E0DF91CF911F910F91FF90F9
:10048000EF900895CF93DF93EC01888D8823C9F016
:10049000EA89FB89808185FD05C0A889B9898C918D
:1004A00086FD0FC00FB607FCF5CF808185FFF2CF28
:1004B000A889B9898C9185FFEDCFCE010E94DA0120
:1004C000E7CFDF91CF91089580E090E0892B29F06C
:1004D0000E94D00181110C9400000895833081F0B6
:1004E00028F4813099F08230A1F008958730A9F086
:1004F0008830B9F08430D1F4809180008F7D03C0C2
:10050000809180008F7780938000089584B58F77E5
:1005100002C084B58F7D84BD08958091B0008F772F
:1005200003C08091B0008F7D8093B00008951F9329
:10053000CF93DF93282F30E0F901E255FF4F8491EC
:10054000F901E656FF4FD491F901EA57FF4FC491E4
:10055000CC23C9F0162F81110E946E02EC2FF0E01F
:10056000EE0FFF1FEE58FF4FA591B4918FB7F8948F
:10057000111105C09C91ED2FE095E92302C0EC918B
:10058000ED2BEC938FBFDF91CF911F910895CF9307
:10059000DF9390E0FC01E656FF4F2491FC01EA57FF
:1005A000FF4F8491882361F190E0880F991FFC012F
:1005B000E859FF4FC591D491FC01EE58FF4FA5912A
:1005C000B491611109C09FB7F89488812095822366
:1005D0008883EC912E230BC0623061F49FB7F894AE
:1005E0003881822F809583238883EC912E2B2C9346
:1005F0009FBF06C08FB7F894E8812E2B28838FBF4A
:10060000DF91CF9108953FB7F8948091290190919F
:100610002A01A0912B01B0912C0126B5A89B05C001
:100620002F3F19F00196A11DB11D3FBFBA2FA92F71
:10063000982F8827820F911DA11DB11DBC01CD01EE
:1006400042E0660F771F881F991F4A95D1F70895DA
:10065000009769F0FC0101900020E9F73197AF01A4
:10066000481B590BBC0189E491E00C94770180E0B0
:1006700090E00895CF92DF92EF92FF920F931F9335
:10068000CF93DF93CDB7DEB7A1970FB6F894DEBF57
:100690000FBECDBF9B01AC0119A28E010F5D1F4F94
:1006A0008AE0C82ED12CE12CF12CCA01B901A70196
:1006B00096010E940E06605DF80162938F0121157C
:1006C00031054105510589F7CF010E9428038C01AE
:1006D00080E191E00E942803800F911FA1960FB640
:1006E000F894DEBF0FBECDBFDF91CF911F910F9168
:1006F000FF90EF90DF90CF9008950E946C061F92BC
:100700000F920FB60F9211242F933F934F935F9345
:100710006F937F938F939F93AF93BF93EF93FF93C9
:1007200089E491E00E94DA01FF91EF91BF91AF91CE
:100730009F918F917F916F915F914F913F912F91F9
:100740000F900FBE0F901F9018951F920F920FB62B
:100750000F9211242F938F939F93EF93FF93E09128
:100760005901F0915A018081E0915F01F09160019F
:1007700082FD12C09081809162018F5F8F73209102
:100780006301821751F0E0916201F0E0E75BFE4FF8
:10079000958F8093620101C08081FF91EF919F91BD
:1007A0008F912F910F900FBE0F901F9018951F9251
:1007B0000F920FB60F9211242F933F938F939F9315
:1007C000AF93BF938091450190914601A09147015D
:1007D000B09148013091280123E0230F2D3720F4F8
:1007E0000196A11DB11D05C026E8230F0296A11D8B
:1007F000B11D209328018093450190934601A09359
:100800004701B09348018091290190912A01A0915C
:100810002B01B0912C010196A11DB11D80932901DE
:1008200090932A01A0932B01B0932C01BF91AF911B
:100830009F918F913F912F910F900FBE0F901F901E
:100840001895789484B5826084BD84B5816084BD38
:1008500085B5826085BD85B5816085BD80916E005E
:10086000816080936E00109281008091810082608F
:1008700080938100809181008160809381008091CC
:1008800080008160809380008091B10084608093BB
:10089000B1008091B00081608093B00080917A00B7
:1008A000846080937A0080917A00826080937A00DD
:1008B00080917A00816080937A0080917A008068CC
:1008C00080937A001092C10060E082E00E94C7022B
:1008D00061E085E00E94C70261E088E00E94C702F3
:1008E00061E089E00E94C70260E085E00E94970213
:1008F00060E089E00E949702E0915901F0915A016D
:1009000082E08083E0915501F09156011082E091E0
:100910005701F09158018FEC808310926101E091B2
:100920005D01F0915E0186E08083E0915B01F091D2
:100930005C01808180618083E0915B01F0915C01CA
:10094000808188608083E0915B01F0915C0180810F
:1009500080688083E0915B01F0915C0180818F7DF4
:10096000808383E191E00E94280380E191E00E946E
:10097000280380E191E00E942803E0914901F09171
:100980004A010190F081E02D61E689E491E009954A
:1009900080E191E00E94280389E491E00E94A20195
:1009A0008136D1F789E491E00E94420289E491E026
:1009B0000E94C40118161906CCF70E94D200609359
:1009C0002D0170932E0180932F01909330010E948E
:1009D000D20060933D0170933E0180933F0190935C
:1009E0004001C0EBD0E00CE910E038E8E32E30E045
:1009F000F32EFE018491F801C490F701D490DD201C
:100A0000A9F081110E946E028D2D90E0880F991F30
:100A100084589F4FFC01A591B4918C91C82291E01C
:100A200080E009F490E0C92ED82E02C0C12CD12C50
:100A30000E9403038090410190904201A0904301E5
:100A4000B09044019B01AC01281939094A095B099E
:100A500049015A0120E034E244E759E460913D0144
:100A600070913E0180913F01909140010E94AE063D
:100A70000E943606681579058A059B0540F460E0FA
:100A800085E00E94970260E089E00E9497028091D1
:100A90003B0190913C01C816D90691F00E940303D6
:100AA00060933701709338018093390190933A0134
:100AB0006093330170933401809335019093360134
:100AC0000E9403038090370190903801A090390173
:100AD000B0903A01DC01CB0188199909AA09BB0938
:100AE00081329E44A105B10508F464C080913101B2
:100AF00090913201C816D90609F45CC0D092320137
:100B0000C09231016C2D88E00E94970231E0C3163B
:100B1000D10409F04FC08FE191E00E942803609159
:100B200033017091340180913501909136010E941A
:100B30003A030E9403038090410190904201A090EB
:100B40004301B09044019B01AC01281939094A09BD
:100B50005B0949015A0120E034E244E759E460911D
:100B60002D0170912E0180912F01909130010E94F2
:100B7000AE060E943606681579058A059B05D0F4F5
:100B800061E085E00E94970261E089E00E9497029F
:100B90000E940303609341017093420180934301DB
:100BA0009093440183E291E00E9428030E94030392
:100BB0000E943A03D0923C01C0923B010E94640221
:100BC00018CFE9E4F1E01382128288EE93E0A0E00E
:100BD000B0E084839583A683B78384E091E091831A
:100BE000808385EC90E09587848784EC90E09787FC
:100BF000868780EC90E0918B808B81EC90E0938BEA
:100C0000828B82EC90E0958B848B86EC90E0978BC6
:100C1000868B118E128E138E148E0895A1E21A2ED9
:100C2000AA1BBB1BFD010DC0AA1FBB1FEE1FFF1F90
:100C3000A217B307E407F50720F0A21BB30BE40BE0
:100C4000F50B661F771F881F991F1A9469F7609527
:100C50007095809590959B01AC01BD01CF010895E1
:100C6000EE0FFF1F0590F491E02D09940E943D06C0
:100C70006894B1110C94660708950E944B0788F0A0
:100C80009F5798F0B92F9927B751B0F0E1F0660F50
:100C9000771F881F991F1AF0BA95C9F714C0B13091
:100CA00091F00E946507B1E008950C946507672FE5
:100CB000782F8827B85F39F0B93FCCF386957795C0
:100CC0006795B395D9F73EF49095809570956195A9
:100CD0007F4F8F4F9F4F089581E090E0F8940C94E0
:100CE0008607E89409C097FB3EF49095809570952F
:100CF00061957F4F8F4F9F4F9923A9F0F92F96E968
:100D0000BB279395F695879577956795B795F111DC
:100D1000F8CFFAF4BB0F11F460FF1BC06F5F7F4F79
:100D20008F4F9F4F16C0882311F096E911C077238B
:100D300021F09EE8872F762F05C0662371F096E894
:100D4000862F70E060E02AF09A95660F771F881F63
:100D5000DAF7880F9695879597F908950E94C1064E
:100D60000C9432070E94240738F00E942B0720F0D1
:100D7000952311F00C941B070C94210711240C945B
:100D800066070E94430770F3959FC1F3950F50E0EB
:100D9000551F629FF001729FBB27F00DB11D639F2D
:100DA000AA27F00DB11DAA1F649F6627B00DA11DD3
:100DB000661F829F2227B00DA11D621F739FB00D79
:100DC000A11D621F839FA00D611D221F749F3327E9
:100DD000A00D611D231F849F600D211D822F762F82
:100DE0006A2F11249F5750409AF0F1F088234AF05F
:100DF000EE0FFF1FBB1F661F771F881F91505040CB
:100E0000A9F79E3F510580F00C941B070C946607D0
:100E10005F3FE4F3983ED4F3869577956795B79551
:100E2000F795E7959F5FC1F7FE2B880F911D96956B
:100E3000879597F9089597F99F6780E870E060E0DB
:100E400008959FEF80EC089500240A941616170663
:100E500018060906089500240A94121613061406AB
:100E600005060895092E0394000C11F4882352F00E
:100E7000BB0F40F4BF2B11F460FF04C06F5F7F4FC6
:100E80008F4F9F4F089557FD9058440F551F59F0AD
:100E90005F3F71F04795880F97FB991F61F09F3F67
:100EA00079F087950895121613061406551FF2CF90
:100EB0004695F1DF08C0161617061806991FF1CFE0
:100EC00086957105610508940895E894BB27662707
:100ED0007727CB0197F908950E947707A59F900D7A
:100EE000B49F900DA49F800D911D11240895A29F81
:100EF000B001B39FC001A39F700D811D1124911DEE
:100F0000B29F700D811D1124911D0895F894FFCF9B
:100F100000000000FB017701C401A201B6014202FA
:100F20000D0A005374617274696E672E2E2E0031A3
:080F3000202000302020000009
:00000001FF
