:100000000C9462000C948A000C948A000C948A0070
:100010000C948A000C948A000C948A000C948A0038
:100020000C948A000C948A000C948A000C948A0028
:100030000C948A000C948A000C948A000C948A0018
:100040000C946D010C948A000C941B040C944D04C8
:100050000C948A000C948A000C948A000C948A00F8
:100060000C948A000C948A00000000080002010031
:100070000003040700000000000000000102040863
:100080001020408001020408102001020408102002
:10009000040404040404040402020202020203032E
:1000A00003030303000000002300260029000000D2
:1000B0000000250028002B0000000000240027007D
:1000C0002A007D0411241FBECFEFD8E0DEBFCDBFD4
:1000D00011E0A0E0B1E0E6E6FCE002C005900D9280
:1000E000A833B107D9F721E0A8E3B1E001C01D9220
:1000F000A03FB207E1F710E0C4ECD0E004C02297C3
:10010000FE010E942D06C23CD107C9F70E94FA05E4
:100110000C9431060C9400000F931F93CF93DF9340
:1001200082E00E94AD02EC010E94B70100913C0107
:1001300010913D0120913E0130913F01601B710BF8
:10014000820B930B693F74428140910520F060E07F
:1001500085E00E9477028091440190914501C81783
:10016000D90791F00E94B70160933801709339016B
:1001700080933A0190933B01609340017093410159
:1001800080934201909343010E94B701009138018E
:100190001091390120913A0130913B01601B710BA4
:1001A000820B930B0091000110910101209102013B
:1001B00030910301061717072807390708F055C0C3
:1001C0008091460190914701C817D90709F44DC0A5
:1001D000D0934701C0934601C130D10509F045C015
:1001E00064E071E083E591E00E94FE0440914001EB
:1001F0005091410160914201709143012AE030E049
:1002000083E591E00E94C8050E94B70100913C017E
:1002100010913D0120913E0130913F01601B710B17
:10022000820B930B613874488E419105F0F061E0C8
:1002300085E00E9477020E94B70160933C017093B1
:100240003D0180933E0190933F0168E071E083E5BA
:1002500091E00E94FE040E94B701AB01BC012AE0BC
:1002600030E083E591E00E94E705D0934501C0931B
:100270004401DF91CF911F910F91089560E082E0DA
:100280000E943E0261E085E00E943E0260914801CA
:1002900085E00E94770226E040E855E260E070E0E9
:1002A00083E591E00E94B9036CE071E083E591E0A1
:1002B0000E940B0583E591E00E94070561E683E556
:1002C00091E00E941D0583E591E00E94EF028136D6
:1002D000D1F783E591E00C9432031F920F920FB691
:1002E0000F9211242F933F938F939F93AF93BF93BC
:1002F00080914B0190914C01A0914D01B0914E0124
:1003000030914A0123E0230F2D3720F40196A11DDF
:10031000B11D05C026E8230F0296A11DB11D209333
:100320004A0180934B0190934C01A0934D01B093EF
:100330004E0180914F0190915001A0915101B091D7
:1003400052010196A11DB11D80934F019093500160
:10035000A0935101B0935201BF91AF919F918F91A2
:100360003F912F910F900FBE0F901F9018953FB7A0
:10037000F89480914F0190915001A0915101B0915A
:10038000520126B5A89B05C02F3F19F00196A11D6B
:10039000B11D3FBF6627782F892F9A2F620F711DDD
:1003A000811D911D42E0660F771F881F991F4A9596
:1003B000D1F70895789484B5826084BD84B5816056
:1003C00084BD85B5826085BD85B5816085BDEEE65D
:1003D000F0E0808181608083E1E8F0E0108280813C
:1003E00082608083808181608083E0E8F0E08081AA
:1003F00081608083E1EBF0E0808184608083E0EBCA
:10040000F0E0808181608083EAE7F0E080818460B1
:10041000808380818260808380818160808380810D
:10042000806880831092C1000895833081F028F4A1
:10043000813099F08230A1F008958730A9F088309A
:10044000B9F08430D1F4809180008F7D03C0809119
:1004500080008F7780938000089584B58F7702C0E5
:1004600084B58F7D84BD08958091B0008F7703C0DF
:100470008091B0008F7D8093B0000895CF93DF937B
:1004800090E0FC01E458FF4F2491FC01E057FF4F3E
:100490008491882349F190E0880F991FFC01E8546A
:1004A000FF4FA591B49182559F4FFC01C591D49106
:1004B0009FB7611108C0F8948C91209582238C938A
:1004C000888182230AC0623051F4F8948C91322FD3
:1004D000309583238C938881822B888304C0F89481
:1004E0008C91822B8C939FBFDF91CF9108950F93B6
:1004F0001F93CF93DF931F92CDB7DEB7282F30E045
:10050000F901E859FF4F8491F901E458FF4F149124
:10051000F901E057FF4F04910023C9F0882321F02F
:1005200069830E9415026981E02FF0E0EE0FFF1F42
:10053000E255FF4FA591B4919FB7F8948C9161114A
:1005400003C01095812301C0812B8C939FBF0F9016
:10055000DF91CF911F910F910895CF93DF93282FB3
:1005600030E0F901E859FF4F8491F901E458FF4F59
:10057000D491F901E057FF4FC491CC2391F0811140
:100580000E941502EC2FF0E0EE0FFF1FEC55FF4F1D
:10059000A591B4912C912D2381E090E021F480E08D
:1005A00002C080E090E0DF91CF910895FC01818D41
:1005B000228D90E0805C9F4F821B91098F73992759
:1005C0000895FC01918D828D981731F0828DE80F8E
:1005D000F11D858D90E008958FEF9FEF0895FC0148
:1005E000918D828D981761F0828DDF01A80FB11D6A
:1005F0005D968C91928D9F5F9F73928F90E008958E
:100600008FEF9FEF089583E794E0892B49F080E016
:1006100090E0892B29F00E94730481110C94000052
:100620000895FC01848DDF01A80FB11DA35ABF4FAF
:100630002C91848D90E001968F739927848FA689E1
:10064000B7892C93A089B1898C9180648C93938D08
:10065000848D981306C00288F389E02D80818F7DF8
:1006600080830895CF93DF93EC01888D8823C9F0B0
:10067000EA89FB89808185FD05C0A889B9898C91AB
:1006800086FD0FC00FB607FCF5CF808185FFF2CF46
:10069000A889B9898C9185FFEDCFCE010E94110305
:1006A000E7CFDF91CF910895CF92DF92FF920F9322
:1006B0001F93CF93DF931F92CDB7DEB76C0181E01C
:1006C000D60158968C9358975B969C915B975C9655
:1006D0008C915C97981307C05096ED91FC915197BF
:1006E000808185FD2EC0F601038D10E00F5F1F4F46
:1006F0000F731127F02EF601848DF81211C00FB67A
:1007000007FCF9CFD6015096ED91FC91519780816D
:1007100085FFF1CFC60169830E9411036981EBCF88
:10072000838DE80FF11DE35AFF4F6083D6015B967E
:100730000C935B975296ED91FC9153978081806268
:100740000CC0D6015696ED91FC9157976083509658
:10075000ED91FC91519780818064808381E090E0ED
:100760000F90DF91CF911F910F91FF90DF90CF906D
:100770000895BF92CF92DF92EF92FF92CF93DF93D3
:10078000EC016A017B01B22EE889F98982E080835D
:10079000411581EE580761057105A1F060E079E02F
:1007A0008DE390E0A70196010E94090621503109CE
:1007B000410951095695479537952795211580E1AF
:1007C000380798F0E889F989108260E874E88EE1CA
:1007D00090E0A70196010E940906215031094109C4
:1007E00051095695479537952795EC85FD853083BA
:1007F000EE85FF852083188EEC89FD89B082EA8919
:10080000FB89808180618083EA89FB89808188609F
:100810008083EA89FB89808180688083EA89FB89FB
:1008200080818F7D8083DF91CF91FF90EF90DF906B
:10083000CF90BF9008951F920F920FB60F92112480
:100840002F938F939F93EF93FF93E0916301F09128
:1008500064018081E0916901F0916A0182FD12C01A
:10086000908180916C018F5F8F7320916D01821751
:1008700051F0E0916C01F0E0ED5AFE4F958F8093BE
:100880006C0101C08081FF91EF919F918F912F9119
:100890000F900FBE0F901F9018951F920F920FB6DA
:1008A0000F9211242F933F934F935F936F937F93F6
:1008B0008F939F93AF93BF93EF93FF9383E591E063
:1008C0000E941103FF91EF91BF91AF919F918F9182
:1008D0007F916F915F914F913F912F910F900FBE3C
:1008E0000F901F90189583E591E00E94D60221E0B9
:1008F000892B09F420E0822F08951092560110925E
:10090000550188EE93E0A0E0B0E08093570190930A
:100910005801A0935901B0935A018CE191E0909352
:1009200054018093530185EC90E090936001809393
:100930005F0184EC90E0909362018093610180EC10
:1009400090E0909364018093630181EC90E0909338
:1009500066018093650182EC90E09093680180933A
:10096000670186EC90E090936A0180936901109290
:100970006C0110926D0110926E0110926F0108953A
:10098000CF92DF92EF92FF920F931F93CF93DF935B
:100990007C016A01EB0100E010E00C151D0571F00F
:1009A0006991D701ED91FC910190F081E02DC70193
:1009B0000995892B19F00F5F1F4FEFCFC801DF9109
:1009C000CF911F910F91FF90EF90DF90CF900895FE
:1009D0006115710581F0DB010D900020E9F7AD0193
:1009E00041505109461B570BDC01ED91FC910280EF
:1009F000F381E02D099480E090E008950C94E804E0
:100A0000DC01ED91FC910190F081E02D099468E208
:100A100071E00C94E8040F931F93CF93DF93EC01E4
:100A20000E94E8048C01CE010E940705800F911FEF
:100A3000DF91CF911F910F9108950F931F93CF9343
:100A4000DF93EC010E9400058C01CE010E94070596
:100A5000800F911FDF91CF911F910F9108958F9279
:100A60009F92AF92BF92DF92EF92FF920F931F93EC
:100A7000CF93DF93CDB7DEB7A1970FB6F894DEBF63
:100A80000FBECDBF7C01F42FD52ECB0119A2223091
:100A900008F42AE08E010F5D1F4F822E912CA12CAD
:100AA000B12C6F2F7D2DA50194010E940906F22F14
:100AB000D32ECA01015011096A3014F4E0E301C0D9
:100AC000E7E3E60FD801EC93232B242B252B49F7E2
:100AD000B801C7010E94E804A1960FB6F894DEBFE2
:100AE0000FBECDBFDF91CF911F910F91FF90EF907F
:100AF000DF90BF90AF909F908F900895CF92DF923C
:100B0000EF92FF920F931F93CF93DF93EC016A0153
:100B10007B012115310579F4E881F9810190F0819B
:100B2000E02D642FDF91CF911F910F91FF90EF90F7
:100B3000DF90CF9009942A303105E9F477FF1AC08D
:100B40006DE20E9400058C0144275527BA014C191B
:100B50005D096E097F092AE0CE010E942F05800FF2
:100B6000911FDF91CF911F910F91FF90EF90DF9038
:100B7000CF9008952AE0B701A601CE01DF91CF9171
:100B80001F910F91FF90EF90DF90CF900C942F0565
:100B90000F931F93CF93DF93EC010E947E058C018E
:100BA000CE010E940705800F911FDF91CF911F9109
:100BB0000F9108952115310541F4DC01ED91FC916F
:100BC0000190F081E02D642F09940C942F050F9370
:100BD0001F93CF93DF93EC010E94DA058C01CE01C5
:100BE0000E940705800F911FDF91CF911F910F91F8
:100BF000089508950E94DA010E94F9050E943E01BD
:100C0000C3E0D3E00E948C002097E1F30E9403032D
:100C1000F9CFA1E21A2EAA1BBB1BFD010DC0AA1F12
:100C2000BB1FEE1FFF1FA217B307E407F50720F055
:100C3000A21BB30BE40BF50B661F771F881F991FD0
:100C40001A9469F760957095809590959B01AC0119
:100C5000BD01CF010895EE0FFF1F0590F491E02D27
:060C60000994F894FFCF97
:100C660050C30000312020003020200053746172F0
:100C760074696E672E2E2E00000000005403C00417
:100C8600D602EF02E10232030D0A006E616E0069C0
:080C96006E66006F7666000037
:00000001FF
