:100000000C945D000C9485000C9485000C94850084
:100010000C9485000C9485000C9485000C9485004C
:100020000C9485000C9485000C9485000C9485003C
:100030000C9485000C9485000C9485000C9485002C
:100040000C949D040C9485000C94AC020C94DE027C
:100050000C9485000C9485000C9485000C9485000C
:100060000C9485000C94850000000008000201003B
:100070000003040700000000000000000102040863
:100080001020408001020408102001020408102002
:10009000040404040404040402020202020203032E
:1000A0000303030300000000250028002B000000CC
:1000B0000000240027002A000E0311241FBECFEFEA
:1000C000D8E0DEBFCDBF11E0A0E0B1E0E4EEFAE0A1
:1000D00002C005900D92A832B107D9F721E0A8E23D
:1000E000B1E001C01D92A03DB207E1F710E0CAEBFC
:1000F000D0E004C02297FE010E945D05C83BD107F5
:10010000C9F70E948E040C9470050C94000060E006
:1001100085E00E94F8006091280185E00E9431018D
:1001200026E040E855E260E070E08AE291E00E945B
:100130004A028AE291E00E94C30161E68AE291E00C
:100140000E949A038AE291E00E9480018136D1F7F1
:100150008AE291E00C94C3018AE291E00E94670177
:1001600018161906DCF441E060E070E08AE291E0E4
:100170000E941D046130710589F461E080912801BD
:1001800090912901892B09F060E0862F90E09093EF
:1001900029018093280185E00C9431010895833072
:1001A00081F028F4813099F08230A1F008958730F1
:1001B000A9F08830B9F08430D1F4809180008F7D2F
:1001C00003C0809180008F7780938000089584B56C
:1001D0008F7702C084B58F7D84BD08958091B00073
:1001E0008F7703C08091B0008F7D8093B000089519
:1001F000CF93DF9390E0FC01E458FF4F2491FC0182
:10020000E057FF4F8491882349F190E0880F991FB0
:10021000FC01E255FF4FA591B4918C559F4FFC0115
:10022000C591D4919FB7611108C0F8948C91209525
:1002300082238C93888182230AC0623051F4F8941F
:100240008C91322F309583238C938881822B8883E5
:1002500004C0F8948C91822B8C939FBFDF91CF9137
:1002600008950F931F93CF93DF931F92CDB7DEB7FF
:10027000282F30E0F901E859FF4F8491F901E45843
:10028000FF4F1491F901E057FF4F04910023C9F08B
:10029000882321F069830E94CF006981E02FF0E07C
:1002A000EE0FFF1FEC55FF4FA591B4919FB7F89447
:1002B0008C91611103C01095812301C0812B8C9317
:1002C0009FBF0F90DF91CF911F910F910895FC0177
:1002D000818D228D90E0805C9F4F821B91098F73EE
:1002E00099270895FC01918D828D981731F0828DA8
:1002F000E80FF11D858D90E008958FEF9FEF089531
:10030000FC01918D828D981761F0828DDF01A80F1D
:10031000B11D5D968C91928D9F5F9F73928F90E03F
:1003200008958FEF9FEF089584E093E0892B49F0C3
:1003300080E090E0892B29F00E94040381110C9445
:1003400000000895FC01848DDF01A80FB11DA35AA0
:10035000BF4F2C91848D90E001968F739927848FE5
:10036000A689B7892C93A089B1898C9180648C93DC
:10037000938D848D981306C00288F389E02D8081C7
:100380008F7D80830895CF93DF93EC01888D882340
:10039000C9F0EA89FB89808185FD05C0A889B989F2
:1003A0008C9186FD0FC00FB607FCF5CF808185FFCD
:1003B000F2CFA889B9898C9185FFEDCFCE010E943B
:1003C000A201E7CFDF91CF910895CF92DF92FF9204
:1003D0000F931F93CF93DF931F92CDB7DEB76C01BE
:1003E00081E0D60158968C9358975B969C915B97C9
:1003F0005C968C915C97981307C05096ED91FC9198
:100400005197808185FD2EC0F601038D10E00F5FAE
:100410001F4F0F731127F02EF601848DF81211C0B3
:100420000FB607FCF9CFD6015096ED91FC9151978C
:10043000808185FFF1CFC60169830E94A201698195
:10044000EBCF838DE80FF11DE35AFF4F6083D60198
:100450005B960C935B975296ED91FC91539780813C
:1004600080620CC0D6015696ED91FC91579760833F
:100470005096ED91FC91519780818064808381E05A
:1004800090E00F90DF91CF911F910F91FF90DF903F
:10049000CF900895BF92CF92DF92EF92FF92CF93C9
:1004A000DF93EC016A017B01B22EE889F98982E0D1
:1004B0008083411581EE580761057105A1F060E068
:1004C00079E08DE390E0A70196010E942E0521506E
:1004D00031094109510956954795379527952115B9
:1004E00080E1380798F0E889F989108260E874E8BB
:1004F0008EE190E0A70196010E942E05215031095E
:10050000410951095695479537952795EC85FD8505
:100510003083EE85FF852083188EEC89FD89B082BB
:10052000EA89FB89808180618083EA89FB898081F7
:1005300088608083EA89FB89808180688083EA897A
:10054000FB8980818F7D8083DF91CF91FF90EF9039
:10055000DF90CF90BF9008951F920F920FB60F9229
:1005600011242F938F939F93EF93FF93E0913A0180
:10057000F0913B018081E0914001F091410182FDC9
:1005800012C09081809143018F5F8F73209144014D
:10059000821751F0E0914301F0E0E65DFE4F958F48
:1005A0008093430101C08081FF91EF919F918F91D2
:1005B0002F910F900FBE0F901F9018951F920F92C2
:1005C0000FB60F9211242F933F934F935F936F9326
:1005D0007F938F939F93AF93BF93EF93FF938AE2A1
:1005E00091E00E94A201FF91EF91BF91AF919F9185
:1005F0008F917F916F915F914F913F912F910F90CC
:100600000FBE0F901F9018958AE291E00E9467013B
:1006100021E0892B09F420E0822F089510922D010A
:1006200010922C0188EE93E0A0E0B0E080932E01C0
:1006300090932F01A0933001B09331018AE091E0B3
:1006400090932B0180932A0185EC90E090933701E1
:100650008093360184EC90E09093390180933801C7
:1006600080EC90E090933B0180933A0181EC90E024
:1006700090933D0180933C0182EC90E090933F0188
:1006800080933E0186EC90E090934101809340017D
:1006900010924301109244011092450110924601BC
:1006A0000895CF92DF92EF92FF920F931F93CF9313
:1006B000DF937C016A01EB0100E010E00C151D05E1
:1006C00071F06991D701ED91FC910190F081E02DDD
:1006D000C7010995892B19F00F5F1F4FEFCFC80194
:1006E000DF91CF911F910F91FF90EF90DF90CF900E
:1006F00008956115710581F0DB010D900020E9F787
:10070000AD0141505109461B570BDC01ED91FC91A5
:100710000280F381E02D099480E090E00895DC01EF
:10072000ED91FC910190F081E02D099466E171E07A
:100730000C9479030F931F93CF93DF93EC010E94E6
:100740008F038C01CE010E949603800F911FDF91D1
:10075000CF911F910F9108950F931F93CF93DF9324
:10076000EC010E94E704688779878A879B87E88184
:10077000F9810084F185E02DCE01099597FF15C020
:100780000E94E704088519852A853B85601B710B4B
:10079000820B930B0C811D812E813F8160177107A5
:1007A0008207930720F38FEF9FEFDF91CF911F9187
:1007B0000F910895FF920F931F93CF93DF93EC0156
:1007C0008B01F42ECE010E94AC039C0197FD28C042
:1007D0008D32910519F1C0970A9710F1FF2019F099
:1007E0002E323105F9F001301105F9F00230110512
:1007F00069F42D30310551F034F42950310922309B
:10080000310520F012C02032310579F4E881F981F8
:100810000680F781E02DCE010995D4CF8DE203C08B
:10082000C90105C08EE290E002C08FEF9FEFDF911B
:10083000CF911F910F91FF900895CF92DF92FF9279
:100840000F931F93CF93DF9300D000D0CDB7DEB7C7
:100850006C01042F40E00E94DA03FC0197FD4BC0BD
:1008600020E030E0A901F12C112707FD1095E017D9
:10087000F107E9F0ED32F105C1F0CF01C0970A9719
:10088000B0F4AAE0B0E00E9450059B01AC01CF019A
:10089000AA2797FDA095BA2F280F391F4A1F5B1F63
:1008A000205331094109510902C0FF24F394D601B4
:1008B000ED91FC910680F781E02DC60129833A83F2
:1008C0004B835C830995C6010E94AC03FC01C09771
:1008D00029813A814B815C810A9748F2E017F10740
:1008E00031F2FF2061F066277727CB01621B730B83
:1008F000840B950B06C060E070E0CB0102C0CA011A
:10090000B9010F900F900F900F90DF91CF911F9131
:100910000F91FF90DF90CF90089508950E94F30407
:100920000E948D040E948700C4E9D1E00E94AC00BF
:100930002097E1F30E949401F9CF1F920F920FB616
:100940000F9211242F933F938F939F93AF93BF9355
:100950008091C8019091C901A091CA01B091CB01C9
:100960003091C70123E0230F2D3720F40196A11DFC
:10097000B11D05C026E8230F0296A11DB11D2093CD
:10098000C7018093C8019093C901A093CA01B09395
:10099000CB018091CC019091CD01A091CE01B0917D
:1009A000CF010196A11DB11D8093CC019093CD0183
:1009B000A093CE01B093CF01BF91AF919F918F9142
:1009C0003F912F910F900FBE0F901F9018952FB74A
:1009D000F8946091C8017091C9018091CA01909109
:1009E000CB012FBF0895789484B5826084BD84B50F
:1009F000816084BD85B5826085BD85B5816085BD1A
:100A0000EEE6F0E0808181608083E1E8F0E0108232
:100A1000808182608083808181608083E0E8F0E073
:100A2000808181608083E1EBF0E08081846080835D
:100A3000E0EBF0E0808181608083EAE7F0E0808194
:100A400084608083808182608083808181608083F4
:100A50008081806880831092C1000895A1E21A2EDF
:100A6000AA1BBB1BFD010DC0AA1FBB1FEE1FFF1F52
:100A7000A217B307E407F50720F0A21BB30BE40BA2
:100A8000F50B661F771F881F991F1A9469F76095E9
:100A90007095809590959B01AC01BD01CF010895A3
:100AA0000E946105A59F900DB49F900DA49F800D9D
:100AB000911D11240895EE0FFF1F0590F491E02D74
:100AC0000994A29FB001B39FC001A39F700D811D27
:100AD0001124911DB29F700D811D1124911D089547
:040AE000F894FFCFB8
:100AE4000000D001800000000000E501510367010F
:100AF40080017201C3010D0A006E616E00696E66A9
:080B0400006F7666002E000070
:00000001FF
