:100000000C9462000C948A000C948A000C948A0070
:100010000C948A000C948A000C948A000C948A0038
:100020000C948A000C948A000C948A000C948A0028
:100030000C948A000C948A000C948A000C948A0018
:100040000C94D4030C948A000C948E060C94C00675
:100050000C948A000C948A000C948A000C948A00F8
:100060000C948A000C948A00000000080002010031
:100070000003040700000000000000000102040863
:100080001020408001020408102001020408102002
:10009000040404040404040402020202020203032E
:1000A00003030303000000002300260029000000D2
:1000B0000000250028002B0000000000240027007D
:1000C0002A00F00611241FBECFEFD8E0DEBFCDBF5F
:1000D00011E0A0E0B1E0E6E2F5E102C005900D928A
:1000E000A634B107D9F722E0A6E4B1E001C01D9221
:1000F000A233B207E1F710E0C4ECD0E004C02297CD
:10010000FE010E947E0AC23CD107C9F70E941E0967
:100110000C94910A0C940000CF92DF92EF92FF9220
:100120000F931F93CF93DF9382E090E0A0E0B0E0C5
:100130008093720190937301A0937401B093750141
:1001400080918A0190918B018230910509F46EC0F3
:1001500034F4009761F0019709F455C09AC28330D6
:10016000910509F488C0049709F4E1C192C20E9484
:100170002A0460936E0170936F01809370019093D5
:1001800071018091880190918901892B09F081C2C8
:1001900082E00E942005019751F40E942A04609396
:1001A0006E0170936F0180937001909371010E94B2
:1001B0002A046B017C0180916E0190916F01A091E6
:1001C0007001B0917101C81AD90AEA0AFB0A20E04D
:1001D00034E244E759E4609146017091470180910F
:1001E0004801909149010E94EC090E942D096C156B
:1001F0007D058E059F0528F681E090E090938B01A8
:1002000080938A0134C285E991E00E94620590934F
:100210007D0180937C01C097029708F03AC282E08A
:1002200090E090938B0180938A0133C283E00E9417
:1002300020059093790180937801019709F029C2F4
:100240006AE071E085E991E00E9471070E942A044A
:10025000AB01BC012AE030E085E991E00E94FE0795
:1002600083E090E090938B0180938A011092770154
:10027000109276010EC282E00E942005EC0180916E
:10028000840190918501C817D90751F00E942A0472
:1002900060935A0170935B0180935C0190935D01C0
:1002A00083E00E9420059093790180937801009764
:1002B00069F480917E0190917F010197C1F181E005
:1002C00090E0909377018093760131C0019779F5A2
:1002D00080917E0190917F01019749F10091760113
:1002E000109177010130110511F50E942A046093E5
:1002F0006A0170936B0180936C0190936D01109370
:100300007F0100937E016CE071E085E991E00E943D
:1003100071070E942A04AB01BC012AE030E085E9A4
:1003200091E00E94FE0710927701109276010E94E0
:100330002A0400915A0110915B0120915C013091D7
:100340005D01601B710B820B930B009106011091F4
:1003500007012091080130910901061717072807A6
:10036000390770F58091820190918301C817D907F0
:1003700039F1D0938301C0938201C130D10501F5D9
:100380006EE071E085E991E00E9471070E942A0405
:10039000AB01BC012AE030E085E991E00E94FE0754
:1003A0000E942A0400916A0110916B0120916C0156
:1003B00030916D01601771078207930709F0ECC057
:1003C00000917A0110917B0101301105D9F50E944D
:1003D0002A046B017C018091660190916701A091D4
:1003E0006801B0916901C81AD90AEA0AFB0A20E03B
:1003F00034E244E759E460915201709153018091D5
:100400005401909155010E94EC090E942D096C1530
:100410007D058E059F05A0F660E085E00E94EA0458
:100420000E942A0460935E0170935F0180936001D3
:1004300090936101109387010093860110927B01D4
:1004400010927A01D0938501C09384010E942A04FE
:100450006B017C0180916A0190916B01A0916C010C
:10046000B0916D01C81AD90AEA0AFB0A20E034E209
:1004700044E759E460914E0170914F018091500121
:10048000909151010E94EC090E942D09C616D706D1
:10049000E806F90608F4FDC080917E0190917F0185
:1004A000019709F0F6C084E090E090938B0180936F
:1004B0008A0110927F0110927E0168E171E085E966
:1004C00091E00E947107D3C00E942A04C09062018B
:1004D000D0906301E0906401F09065016C197D0992
:1004E0008E099F09C0905601D0905701E0905801A5
:1004F000F0905901C616D706E806F906C0F464E183
:1005000071E085E991E00E9471070E942A04AB0125
:10051000BC012AE030E085E991E00E94FE071092DC
:1005200081011092800110928B0110928A018091BA
:10053000800190918101019739F28091860190911B
:1005400087010197E9F466E171E085E991E00E9495
:10055000710740915E0150915F016091600170915F
:1005600061012AE030E085E991E00E94FE071092E7
:1005700087011092860110927B0110927A01DDCFE3
:100580008091800190918101019709F482C01092BD
:100590008B0110928A017DC00E942A0400916A0199
:1005A00010916B0120916C0130916D01601B710BFA
:1005B000820B930B60387F448241910508F000CF95
:1005C00080917C0190917D01C097F1F460E171E030
:1005D00085E991E00E9471070E942A04AB01BC01E9
:1005E0002AE030E085E991E00E94FE07D093810186
:1005F000C09380010E942A0460936201709363019A
:10060000809364019093650180917C0190917D01BC
:10061000C19709F0D5CE8091860190918701892BF1
:1006200009F0CECE62E171E085E991E00E947107A8
:100630000E942A04AB01BC012AE030E085E991E088
:100640000E94FE0761E085E00E94EA040E942A04FD
:1006500060936601709367018093680190936901CC
:1006600081E090E090937B0180937A01A9CE0E9473
:100670002A04AB01BC012AE030E085E991E0DF917A
:10068000CF911F910F91FF90EF90DF90CF900C943E
:10069000FE07DF91CF911F910F91FF90EF90DF90B8
:1006A000CF90089560E082E00E94B10461E085E0AF
:1006B0000E94B10460E083E00E94B10426E040E8BB
:1006C00055E260E070E085E991E00E942C066AE165
:1006D00071E085E991E00E947E0785E991E00E9442
:1006E0007A0761E685E991E00E94900785E991E04B
:1006F0000E9462058136D1F785E991E00E94A50547
:1007000085E991E00E94490518161906CCF741E0E9
:1007100060E070E085E991E00E9481086093460105
:1007200070934701809348019093490141E060E054
:1007300070E085E991E00E94810860935201709316
:100740005301809354019093550141E060E070E0C3
:1007500085E991E00E94810860934E0170934F01FA
:10076000809350019093510141E060E070E085E991
:1007700091E00E94810860934A0170934B0180933D
:100780004C0190934D0120E034E244E759E40E948B
:10079000EC090E942D0960935601709357018093D4
:1007A00058019093590108951F920F920FB60F921E
:1007B00011242F933F938F939F93AF93BF93809177
:1007C0008D0190918E01A0918F01B0919001309197
:1007D0008C0123E0230F2D3720F40196A11DB11DBC
:1007E00005C026E8230F0296A11DB11D20938C01A0
:1007F00080938D0190938E01A0938F01B09390010F
:100800008091910190919201A0919301B0919401F6
:100810000196A11DB11D8093910190939201A09327
:100820009301B0939401BF91AF919F918F913F91AC
:100830002F910F900FBE0F901F9018952FB7F8941F
:1008400060918D0170918E0180918F019091900146
:100850002FBF08953FB7F894809191019091920134
:10086000A0919301B091940126B5A89B05C02F3F9C
:1008700019F00196A11DB11D3FBF6627782F892F62
:100880009A2F620F711D811D911D42E0660F771F27
:10089000881F991F4A95D1F70895789484B582608E
:1008A00084BD84B5816084BD85B5826085BD85B514
:1008B000816085BDEEE6F0E0808181608083E1E8C3
:1008C000F0E01082808182608083808181608083FB
:1008D000E0E8F0E0808181608083E1EBF0E08081FE
:1008E00084608083E0EBF0E0808181608083EAE7D0
:1008F000F0E0808184608083808182608083808159
:10090000816080838081806880831092C100089517
:10091000833081F028F4813099F08230A1F008957D
:100920008730A9F08830B9F08430D1F4809180000C
:100930008F7D03C0809180008F7780938000089521
:1009400084B58F7702C084B58F7D84BD0895809172
:10095000B0008F7703C08091B0008F7D8093B0008E
:100960000895CF93DF9390E0FC01E458FF4F24916A
:10097000FC01E057FF4F8491882349F190E0880FF4
:10098000991FFC01E854FF4FA591B49182559F4FE8
:10099000FC01C591D4919FB7611108C0F8948C9166
:1009A000209582238C93888182230AC0623051F47F
:1009B000F8948C91322F309583238C938881822BED
:1009C000888304C0F8948C91822B8C939FBFDF9115
:1009D000CF9108950F931F93CF93DF931F92CDB7BD
:1009E000DEB7282F30E0F901E859FF4F8491F90173
:1009F000E458FF4F1491F901E057FF4F0491002391
:100A0000C9F0882321F069830E9488046981E02F5E
:100A1000F0E0EE0FFF1FE255FF4FA591B4919FB795
:100A2000F8948C91611103C01095812301C0812B32
:100A30008C939FBF0F90DF91CF911F910F910895DD
:100A4000CF93DF93282F30E0F901E859FF4F8491CD
:100A5000F901E458FF4FD491F901E057FF4FC491D9
:100A6000CC2391F081110E948804EC2FF0E0EE0F6E
:100A7000FF1FEC55FF4FA591B4912C912D2381E0E0
:100A800090E021F480E002C080E090E0DF91CF911F
:100A90000895FC01818D228D90E0805C9F4F821B28
:100AA00091098F7399270895FC01918D828D981774
:100AB00031F0828DE80FF11D858D90E008958FEF64
:100AC0009FEF0895FC01918D828D981761F0828DC2
:100AD000DF01A80FB11D5D968C91928D9F5F9F7372
:100AE000928F90E008958FEF9FEF089586EE96E045
:100AF000892B49F080E090E0892B29F00E94E606DE
:100B000081110C9400000895FC01848DDF01A80F71
:100B1000B11DA35ABF4F2C91848D90E001968F7325
:100B20009927848FA689B7892C93A089B1898C9144
:100B300080648C93938D848D981306C00288F3890A
:100B4000E02D80818F7D80830895CF93DF93EC012A
:100B5000888D8823C9F0EA89FB89808185FD05C0DD
:100B6000A889B9898C9186FD0FC00FB607FCF5CF17
:100B7000808185FFF2CFA889B9898C9185FFEDCF5F
:100B8000CE010E948405E7CFDF91CF910895CF92E7
:100B9000DF92FF920F931F93CF93DF931F92CDB7F6
:100BA000DEB76C0181E0D60158968C9358975B961E
:100BB0009C915B975C968C915C97981307C05096BC
:100BC000ED91FC915197808185FD2EC0F601038D3A
:100BD00010E00F5F1F4F0F731127F02EF601848D69
:100BE000F81211C00FB607FCF9CFD6015096ED915F
:100BF000FC915197808185FFF1CFC60169830E94E6
:100C000084056981EBCF838DE80FF11DE35AFF4F17
:100C10006083D6015B960C935B975296ED91FC91A5
:100C20005397808180620CC0D6015696ED91FC915D
:100C3000579760835096ED91FC9151978081806425
:100C4000808381E090E00F90DF91CF911F910F9111
:100C5000FF90DF90CF900895BF92CF92DF92EF92F6
:100C6000FF92CF93DF93EC016A017B01B22EE889FA
:100C7000F98982E08083411581EE5807610571058D
:100C8000A1F060E079E08DE390E0A70196010E9479
:100C90004F0A215031094109510956954795379519
:100CA0002795211580E1380798F0E889F9891082A5
:100CB00060E874E88EE190E0A70196010E944F0A77
:100CC0002150310941095109569547953795279586
:100CD000EC85FD853083EE85FF852083188EEC89B9
:100CE000FD89B082EA89FB89808180618083EA89FD
:100CF000FB89808188608083EA89FB8980818068A4
:100D00008083EA89FB8980818F7D8083DF91CF9109
:100D1000FF90EF90DF90CF90BF9008951F920F92B9
:100D20000FB60F9211242F938F939F93EF93FF93FE
:100D3000E091A501F091A6018081E091AB01F091D5
:100D4000AC0182FD12C090818091AE018F5F8F73E4
:100D50002091AF01821751F0E091AE01F0E0EB5627
:100D6000FE4F958F8093AE0101C08081FF91EF917E
:100D70009F918F912F910F900FBE0F901F901895FC
:100D80001F920F920FB60F9211242F933F934F9300
:100D90005F936F937F938F939F93AF93BF93EF93E3
:100DA000FF9385E991E00E948405FF91EF91BF9147
:100DB000AF919F918F917F916F915F914F913F91F3
:100DC0002F910F900FBE0F901F90189585E991E01D
:100DD0000E94490521E0892B09F420E0822F089523
:100DE000109298011092970188EE93E0A0E0B0E095
:100DF0008093990190939A01A0939B01B0939C01D9
:100E00008AE291E0909396018093950185EC90E0C1
:100E10009093A2018093A10184EC90E09093A401AF
:100E20008093A30180EC90E09093A6018093A501AC
:100E300081EC90E09093A8018093A70182EC90E070
:100E40009093AA018093A90186EC90E09093AC0165
:100E50008093AB011092AE011092AF011092B001DD
:100E60001092B1010895CF92DF92EF92FF920F930B
:100E70001F93CF93DF937C016A01EB0100E010E048
:100E80000C151D0571F06991D701ED91FC91019050
:100E9000F081E02DC7010995892B19F00F5F1F4FD5
:100EA000EFCFC801DF91CF911F910F91FF90EF908D
:100EB000DF90CF9008956115710581F0DB010D90F1
:100EC0000020E9F7AD0141505109461B570BDC01E9
:100ED000ED91FC910280F381E02D099480E090E097
:100EE00008950C945B07DC01ED91FC910190F08179
:100EF000E02D099466E371E00C945B070F931F9358
:100F0000CF93DF93EC010E945B078C01CE010E941E
:100F10007A07800F911FDF91CF911F910F91089554
:100F20000F931F93CF93DF93EC010E9473078C0103
:100F3000CE010E947A07800F911FDF91CF911F9100
:100F40000F9108958F929F92AF92BF92DF92EF928E
:100F5000FF920F931F93CF93DF93CDB7DEB7A19787
:100F60000FB6F894DEBF0FBECDBF7C01F42FD52E97
:100F7000CB0119A2223008F42AE08E010F5D1F4F29
:100F8000822E912CA12CB12C6F2F7D2DA5019401C7
:100F90000E944F0AF22FD32ECA01015011096A3064
:100FA00014F4E0E301C0E7E3E60FD801EC93232B50
:100FB000242B252B49F7B801C7010E945B07A19696
:100FC0000FB6F894DEBF0FBECDBFDF91CF911F915A
:100FD0000F91FF90EF90DF90BF90AF909F908F9018
:100FE00008952115310541F4DC01ED91FC9101904A
:100FF000F081E02D642F09940C94A2070F931F93A6
:10100000CF93DF93EC010E94F1078C01CE010E9487
:101010007A07800F911FDF91CF911F910F91089553
:101020000F931F93CF93DF93EC010E941E046887F8
:1010300079878A879B87E881F9810084F185E02D93
:10104000CE01099597FF15C00E941E0408851985D9
:101050002A853B85601B710B820B930B0C811D81D4
:101060002E813F81601771078207930720F38FEF6E
:101070009FEFDF91CF911F910F910895FF920F93F2
:101080001F93CF93DF93EC018B01F42ECE010E94CE
:1010900010089C0197FD28C08D32910519F1C09769
:1010A0000A9710F1FF2019F02E323105F9F00130C6
:1010B0001105F9F00230110569F42D30310551F0B8
:1010C00034F4295031092230310520F012C0203289
:1010D000310579F4E881F9810680F781E02DCE01B0
:1010E0000995D4CF8DE203C0C90105C08EE290E01E
:1010F00002C08FEF9FEFDF91CF911F910F91FF9073
:1011000008956F927F928F929F92AF92BF92CF92EB
:10111000DF92EF92FF920F931F93CF93DF93EC0137
:10112000042F41E00E943E08FC0197FD74C0812C11
:10113000912C80E8A82E8FE3B82EC12CD12C7601FB
:10114000712C612C112707FD1095E017F10791F123
:10115000ED32F10551F1EE32F10551F1CF01C097B9
:101160000A9740F5AAE0B0E0A70196010E94710A33
:101170006B017C01CF01AA2797FDA095BA2FC80E5D
:10118000D91EEA1EFB1E80E3C81AD108E108F10847
:10119000772081F02DEC3CEC4CEC5DE3C501B40113
:1011A0000E94EC094B015C0105C06624639402C0F7
:1011B00077247394E881F9810680F781E02DCE01D0
:1011C0000995CE010E941008FC01C0970A9708F407
:1011D000BCCFEE32F10519F4772009F4B6CFE01751
:1011E000F10709F4B2CF662041F0F094E094D09476
:1011F000C094C11CD11CE11CF11CC701B6017720B1
:1012000039F00E946009A50194010E94EC0906C012
:101210000E94600903C060E070E0CB01DF91CF91D4
:101220001F910F91FF90EF90DF90CF90BF90AF9004
:101230009F908F907F906F90089508950E944D0425
:101240000E941D090E945203C6E7D5E00E948C004F
:101250002097E1F30E947605F9CF04D06894B1118C
:10126000B5C0089598D088F09F5790F0B92F99276E
:10127000B751A0F0D1F0660F771F881F991F1AF0A1
:10128000BA95C9F712C0B13081F09FD0B1E008958E
:101290009CC0672F782F8827B85F39F0B93FCCF30F
:1012A000869577956795B395D9F73EF49095809597
:1012B000709561957F4F8F4F9F4F0895E89409C0B7
:1012C00097FB3EF490958095709561957F4F8F4F79
:1012D0009F4F9923A9F0F92F96E9BB279395F6958F
:1012E000879577956795B795F111F8CFFAF4BB0F0D
:1012F00011F460FF1BC06F5F7F4F8F4F9F4F16C071
:10130000882311F096E911C0772321F09EE8872FFA
:10131000762F05C0662371F096E8862F70E060E0B6
:101320002AF09A95660F771F881FDAF7880F96952F
:10133000879597F9089597F99F6780E870E060E0D6
:1013400008959FEF80EC089500240A94161617065E
:1013500018060906089500240A94121613061406A6
:1013600005060895092E0394000C11F4882352F009
:10137000BB0F40F4BF2B11F460FF04C06F5F7F4FC1
:101380008F4F9F4F089557FD9058440F551F59F0A8
:101390005F3F71F04795880F97FB991F61F09F3F62
:1013A00079F087950895121613061406551FF2CF8B
:1013B0004695F1DF08C0161617061806991FF1CFDB
:1013C00086957105610508940895E894BB27662702
:1013D0007727CB0197F908950BD0C4CFB5DF28F05C
:1013E000BADF18F0952309F0A6CFABCF1124EECFCA
:1013F000CADFA0F3959FD1F3950F50E0551F629F70
:10140000F001729FBB27F00DB11D639FAA27F00D5D
:10141000B11DAA1F649F6627B00DA11D661F829F84
:101420002227B00DA11D621F739FB00DA11D621F69
:10143000839FA00D611D221F749F3327A00D611D86
:10144000231F849F600D211D822F762F6A2F112468
:101450009F5750408AF0E1F088234AF0EE0FFF1FBB
:10146000BB1F661F771F881F91505040A9F79E3FF2
:10147000510570F060CFAACF5F3FECF3983EDCF3EC
:10148000869577956795B795F795E7959F5FC1F72F
:10149000FE2B880F911D9695879597F90895A1E2E7
:1014A0001A2EAA1BBB1BFD010DC0AA1FBB1FEE1FDE
:1014B000FF1FA217B307E407F50720F0A21BB30B29
:1014C000E40BF50B661F771F881F991F1A9469F7A5
:1014D00060957095809590959B01AC01BD01CF0101
:1014E00008950E94820AA59F900DB49F900DA49F1D
:1014F000800D911D11240895EE0FFF1F0590F491AA
:10150000E02D0994A29FB001B39FC001A39F700D6D
:10151000811D1124911DB29F700D811D1124911DFB
:061520000895F894FFCFCE
:10152600000032028000581B000053004F004C00A0
:10153600540052005100570043005374617274699D
:101546006E672E2E2E0000000000C70533074905E2
:1015560062055405A5050D0A006E616E00696E668A
:06156600006F7666000034
:00000001FF
