:100000000C9462000C948A000C948A000C948A0070
:100010000C948A000C948A000C948A000C948A0038
:100020000C948A000C948A000C948A000C948A0028
:100030000C948A000C948A000C948A000C948A0018
:100040000C9402040C948A000C94D0030C94AA0320
:100050000C948A000C948A000C948A000C948A00F8
:100060000C948A000C948A000000000024002700F1
:100070002A0000000000250028002B0000000000DE
:1000800023002600290004040404040404040202DA
:100090000202020203030303030301020408102007
:1000A0004080010204081020010204081020000012
:1000B0000008000201000003040700000000000027
:1000C0000000BA0711241FBECFEFD8E0DEBFCDBFBE
:1000D00011E0A0E0B1E0E2ECF2E102C005900D9287
:1000E000A033B107D9F722E0A0E3B1E001C01D922F
:1000F000AE31B207E1F710E0C2E6D0E004C02197CC
:10010000FE010E940908C136D107C9F70E944C04BC
:100110000C945F090C9400002FB7F89480917D0136
:1001200090917E01A0917F01B09180012FBF8093BB
:10013000890190938A01A0938B01B0938C01E09187
:100140008101F09182010084F185E02D81E891E048
:10015000099597FF26C02FB7F89480917D01909163
:100160007E01A0917F01B09180012FBF4091890154
:1001700050918A0160918B0170918C01841B950BC9
:10018000A60BB70B409185015091860160918701C4
:100190007091880184179507A607B70780F28FEF43
:1001A0009FEF08958F929F92AF92BF92CF92DF926E
:1001B000EF92FF92CF93DF930E948C00FC0197FD9A
:1001C00014C08D329105A9F0C0970A9790F0EE32D5
:1001D000F10579F0E0918101F09182010680F781CB
:1001E000E02D81E891E00995E7CF60E070E0CB0178
:1001F00073C0812C912C80E8A82E8FE3B82EC12CDF
:10020000D12C7601C0E0D0E0E130F10569F1ED32AA
:10021000F10539F1EE32F10531F1CF01C0970A97BE
:1002200018F5AAE0B0E0A70196010E9445096F0108
:10023000FF0FEE08FF08C60ED71EE81EF91E80E36A
:10024000C81AD108E108F108CC2371F02DEC3CEC80
:100250004CEC5DE3C501B4010E9487084B015C01D1
:1002600003C0D1E001C0C1E0E0918101F0918201C1
:100270000680F781E02D81E891E009950E948C00CD
:10028000FC01C0970A9708F4BFCFEE32F10519F4CC
:10029000C1111FC0B9CFE130F10509F4B5CFDD239D
:1002A00041F0F094E094D094C094C11CD11CE11CA6
:1002B000F11CCC2349F0C701B6010E944C08A501EE
:1002C00094010E94870808C0C701B6010E944C082B
:1002D00003C0D111E6CFEFCFDF91CF91FF90EF9028
:1002E000DF90CF90BF90AF909F908F900895CF9266
:1002F000DF92EF92FF920F931F93CF93DF936C01E6
:100300007A018B01C0E0D0E0CE15DF0589F0D8017D
:100310006D918D01D601ED91FC910190F081E02D60
:10032000C6010995892B11F47E0102C02196ECCFFC
:10033000C701DF91CF911F910F91FF90EF90DF9058
:10034000CF900895FC01918D828D981761F0828D78
:10035000DF01A80FB11D5D968C91928D9F5F9F73F9
:10036000928F90E008958FEF9FEF0895FC01918D9B
:10037000828D981731F0828DE80FF11D858D90E008
:1003800008958FEF9FEF0895FC01918D228D892FA5
:1003900090E0805C9F4F821B91098F73992708958D
:1003A00081E891E00E94C40121E0892B09F420E05A
:1003B000822F0895FC01848DDF01A80FB11DA35A7F
:1003C000BF4F2C91848D90E001968F739927848F75
:1003D000A689B7892C93A089B1898C9180648C936C
:1003E000938D848D981306C00288F389E02D808157
:1003F0008F7D80830895EF92FF920F931F93CF9389
:10040000DF93EC0181E0888F9B8D8C8D981305C064
:10041000E889F989808185FD24C0F62E0B8D10E0D6
:100420000F5F1F4F0F731127E02E8C8DE8120CC049
:100430000FB607FCFACFE889F989808185FFF5CFEF
:10044000CE010E94DA01F1CF8B8DFE01E80FF11D84
:10045000E35AFF4FF0820B8FEA89FB89808180622B
:1004600007C0EE89FF896083E889F989808180640B
:10047000808381E090E0DF91CF911F910F91FF90F9
:10048000EF900895CF93DF93EC01888D8823C9F016
:10049000EA89FB89808185FD05C0A889B9898C918D
:1004A00086FD0FC00FB607FCF5CF808185FFF2CF28
:1004B000A889B9898C9185FFEDCFCE010E94DA0120
:1004C000E7CFDF91CF91089580E090E0892B29F06C
:1004D0000E94D00181110C9400000895833081F0B6
:1004E00028F4813099F08230A1F008958730A9F086
:1004F0008830B9F08430D1F4809180008F7D03C0C2
:10050000809180008F7780938000089584B58F77E5
:1005100002C084B58F7D84BD08958091B0008F772F
:1005200003C08091B0008F7D8093B0000895CF9379
:10053000DF93282F30E0F901E255FF4F8491F90154
:10054000E656FF4FD491F901EA57FF4FC491CC23EF
:1005500091F081110E946E02EC2FF0E0EE0FFF1F70
:10056000E458FF4FA591B491EC91ED2381E090E028
:1005700021F480E002C080E090E0DF91CF91089507
:100580001F93CF93DF93282F30E0F901E255FF4FFF
:100590008491F901E656FF4FD491F901EA57FF4FD4
:1005A000C491CC23C9F0162F81110E946E02EC2F4A
:1005B000F0E0EE0FFF1FEE58FF4FA591B4918FB7FB
:1005C000F894111105C09C91ED2FE095E92302C02C
:1005D000EC91ED2BEC938FBFDF91CF911F9108959C
:1005E000CF93DF9390E0FC01E656FF4F2491FC018E
:1005F000EA57FF4F8491882361F190E0880F991F9B
:10060000FC01E859FF4FC591D491FC01EE58FF4F12
:10061000A591B491611109C09FB7F8948881209584
:1006200082238883EC912E230BC0623061F49FB744
:10063000F8943881822F809583238883EC912E2B28
:100640002C939FBF06C08FB7F894E8812E2B288388
:100650008FBFDF91CF9108953FB7F894809131011A
:1006600090913201A0913301B091340126B5A89B3D
:1006700005C02F3F19F00196A11DB11D3FBFBA2F34
:10068000A92F982F8827820F911DA11DB11DBC0194
:10069000CD0142E0660F771F881F991F4A95D1F759
:1006A0000895009769F0FC0101900020E9F7319767
:1006B000AF01481B590BBC0181E891E00C94770114
:1006C00080E090E008950C945103CF92DF92EF9276
:1006D000FF920F931F93CF93DF93CDB7DEB7A19710
:1006E0000FB6F894DEBF0FBECDBF9B01AC0119A2BF
:1006F0008E010F5D1F4F8AE0C82ED12CE12CF12C0A
:10070000CA01B901A70196010E94E707605DF801DF
:1007100062938F01211531054105510589F7CF01FC
:100720000E9451038C0180E191E00E945103800FEF
:10073000911FA1960FB6F894DEBF0FBECDBFDF911B
:10074000CF911F910F91FF90EF90DF90CF90089580
:100750000E9445081F920F920FB60F9211242F93FB
:100760003F934F935F936F937F938F939F93AF9339
:10077000BF93EF93FF9381E891E00E94DA01FF912C
:10078000EF91BF91AF919F918F917F916F915F9109
:100790004F913F912F910F900FBE0F901F90189582
:1007A0001F920F920FB60F9211242F938F939F9346
:1007B000EF93FF93E0919101F09192018081E0919C
:1007C0009701F091980182FD12C0908180919A0169
:1007D0008F5F8F7320919B01821751F0E0919A01F6
:1007E000F0E0EF57FE4F958F80939A0101C0808112
:1007F000FF91EF919F918F912F910F900FBE0F90CE
:100800001F9018951F920F920FB60F9211242F93DD
:100810003F938F939F93AF93BF9380917D0190916E
:100820007E01A0917F01B09180013091300123E0E1
:10083000230F2D3720F40196A11DB11D05C026E818
:10084000230F0296A11DB11D2093300180937D01DD
:1008500090937E01A0937F01B0938001809131013C
:1008600090913201A0913301B09134010196A11D04
:10087000B11D8093310190933201A0933301B09365
:100880003401BF91AF919F918F913F912F910F9024
:100890000FBE0F901F901895789484B5826084BD28
:1008A00084B5816084BD85B5826085BD85B5816074
:1008B00085BD80916E00816080936E0010928100F2
:1008C00080918100826080938100809181008160AD
:1008D000809381008091800081608093800080916E
:1008E000B10084608093B1008091B00081608093FA
:1008F000B00080917A00846080937A0080917A00C1
:10090000826080937A0080917A00816080937A007F
:1009100080917A00806880937A001092C10060E034
:1009200082E00E94F00261E085E00E94F00260E057
:1009300083E00E94F00261E088E00E94F00261E042
:1009400089E00E94F002E0919101F091920182E031
:100950008083E0918D01F0918E011082E0918F01F2
:10096000F09190018FEC808310929901E0919501B4
:10097000F091960186E08083E0919301F0919401DB
:10098000808180618083E0919301F0919401808166
:1009900088608083E0919301F09194018081806868
:1009A0008083E0919301F091940180818F7D808319
:1009B00083E191E00E94510380E191E00E945103A4
:1009C00080E191E00E945103E0918101F091820168
:1009D0000190F081E02D61E681E891E0099580E1E8
:1009E00091E00E94510381E891E00E94A2018136CA
:1009F000D1F781E891E00E94420281E891E00E94F3
:100A0000C40118161906CCF70E94D20060936F013A
:100A10007093700180937101909372010E94D200D3
:100A2000609345017093460180934701909348017C
:100A30000E94D20060933D0170933E0180933F017C
:100A4000909340010E94D20060933501709336016B
:100A5000809337019093380120E034E244E759E471
:100A60000E9487080E940F086093390170933A0131
:100A700080933B0190933C0182E0482E512C612CE5
:100A8000712C93E0292E312C01E010E022E0822E1F
:100A9000912C4092790150927A0160927B01709280
:100AA0007C0180917701909178018230910509F461
:100AB0006FC034F4009761F0019709F458C0EDC19C
:100AC0008330910509F47FC0049709F4B9C1E5C1E9
:100AD0000E942C03609373017093740180937501DD
:100AE0009093760182E00E949702019751F40E9450
:100AF0002C0360937301709374018093750190933C
:100B000076010E942C03C0907301D0907401E09094
:100B10007501F09076019B01AC012C193D094E093D
:100B20005F0969017A0120E034E244E759E4609109
:100B30006F017091700180917101909172010E941A
:100B400087080E940F086C157D058E059F0550F6DD
:100B500010937801009377010E942C0360936B013E
:100B600070936C0180936D0190936E0100C281E8D7
:100B700091E00E94A20190936A0180936901C0975D
:100B8000029708F08AC1909278018092770185C11E
:100B900083E00E9497029093680180936701019718
:100BA00009F07BC18FE191E00E9463030E942C0356
:100BB0000E946503309278012092770110926601BD
:100BC000109265016AC182E00E949702EC01809157
:100BD000630190916401C817D90751F00E942C035A
:100BE00060935F0170936001809361019093620153
:100BF00083E00E94970290936801809367010097B9
:100C000059F480915D0190915E01019779F1109303
:100C10006601009365012AC0019741F580915D014D
:100C200090915E01019711F1E0906501F0906601ED
:100C300031E0E316F104D1F40E942C0360935901D2
:100C400070935A0180935B0190935C01F0925E0176
:100C5000E0925D0181E291E00E9463030E942C0317
:100C60000E94650310926601109265010E942C0398
:100C7000C0905F01D0906001E0906101F09062014E
:100C8000DC01CB018C199D09AE09BF0981329E445C
:100C9000A105B10550F18091570190915801C817F5
:100CA000D90719F1D0935801C09357016C2F88E0F0
:100CB0000E94C002C130D105C1F483E291E00E94DC
:100CC00063030E942C030E9465030E942C03C090C2
:100CD0005901D0905A01E0905B01F0905C016C15D5
:100CE0007D058E059F0509F0DBC0A0904901B090FD
:100CF0004A0131E0A316B10409F041C00E942C035F
:100D0000C0904B01D0904C01E0904D01F0904E010D
:100D10009B01AC012C193D094E095F0969017A015B
:100D200020E034E244E759E46091450170914601C6
:100D300080914701909148010E9487080E940F0806
:100D40006C157D058E059F0580F660E085E00E94AC
:100D5000C00260E089E00E94C0020E942C03609300
:100D60004101709342018093430190934401B092FA
:100D70005001A0924F0110924A0110924901D09364
:100D80006401C09363010E942C03C0905901D0906C
:100D90005A01E0905B01F0905C019B01AC012C19C1
:100DA0003D094E095F0969017A0120E034E244E718
:100DB00059E460913D0170913E0180913F01909115
:100DC00040010E9487080E940F08C616D706E80651
:100DD000F90608F462C080915D0190915E0101976F
:100DE00009F05BC0B4C00E942C03C0905101D090A8
:100DF0005201E0905301F0905401DC01CB018C19B9
:100E00009D09AE09BF09C0903901D0903A01E09028
:100E10003B01F0903C01C816D906EA06FB0680F4B7
:100E200089E291E00E9463030E942C030E94650303
:100E3000109256011092550110927801109277018C
:100E40008091550190915601019769F280914F016F
:100E5000909150010197B9F48BE291E00E946303F5
:100E60006091410170914201809143019091440150
:100E70000E9465031092500110924F0110924A0196
:100E800010924901E3CF809155019091560101974D
:100E900021F010927801109277010E946402F9CD3E
:100EA0000E942C03DC01CB018C199D09AE09BF09FE
:100EB00080389F44A241B10508F017CF80916901A5
:100EC00090916A01C097B1F485E291E00E946303BA
:100ED0000E942C030E946503D0935601C0935501D4
:100EE0000E942C036093510170935201809353012F
:100EF000909354018091690190916A01C19709F022
:100F0000F4CE80914F0190915001892B09F0EDCEE4
:100F100087E291E00E9463030E942C030E94650314
:100F200061E085E00E94C00261E089E00E94C002A9
:100F30000E942C0360934B0170934C0180934D01F0
:100F400090934E0110934A0100934901CECE44E0A4
:100F500050E0509378014093770110925E01109217
:100F60005D018DE291E00E9463030E942C030E94C8
:100F7000650393CFE1E8F1E01382128288EE93E0FB
:100F8000A0E0B0E084839583A683B78384E091E0FA
:100F90009183808385EC90E09587848784EC90E052
:100FA0009787868780EC90E0918B808B81EC90E036
:100FB000938B828B82EC90E0958B848B86EC90E017
:100FC000978B868B118E128E138E148E0895A1E24C
:100FD0001A2EAA1BBB1BFD010DC0AA1FBB1FEE1FB3
:100FE000FF1FA217B307E407F50720F0A21BB30BFE
:100FF000E40BF50B661F771F881F991F1A9469F77A
:1010000060957095809590959B01AC01BD01CF01D5
:101010000895EE0FFF1F0590F491E02D09940E94B2
:1010200016086894B1110C943F0908950E94240990
:1010300088F09F5798F0B92F9927B751B0F0E1F099
:10104000660F771F881F991F1AF0BA95C9F714C049
:10105000B13091F00E943E09B1E008950C943E0930
:10106000672F782F8827B85F39F0B93FCCF3869582
:1010700077956795B395D9F73EF4909580957095DF
:1010800061957F4F8F4F9F4F089581E090E0F894D6
:101090000C945F09E89409C097FB3EF49095809505
:1010A000709561957F4F8F4F9F4F9923A9F0F92F2E
:1010B00096E9BB279395F695879577956795B795AC
:1010C000F111F8CFFAF4BB0F11F460FF1BC06F5F92
:1010D0007F4F8F4F9F4F16C0882311F096E911C0A4
:1010E000772321F09EE8872F762F05C0662371F0C5
:1010F00096E8862F70E060E02AF09A95660F771FD9
:10110000881FDAF7880F9695879597F908950E94BA
:101110009A080C940B090E94FD0838F00E940409FB
:1011200020F0952311F00C94F4080C94FA08112483
:101130000C943F090E941C0970F3959FC1F3950F11
:1011400050E0551F629FF001729FBB27F00DB11D4B
:10115000639FAA27F00DB11DAA1F649F6627B00DDB
:10116000A11D661F829F2227B00DA11D621F739FC4
:10117000B00DA11D621F839FA00D611D221F749FD2
:101180003327A00D611D231F849F600D211D822F19
:10119000762F6A2F11249F5750409AF0F1F0882340
:1011A0004AF0EE0FFF1FBB1F661F771F881F91506D
:1011B0005040A9F79E3F510580F00C94F4080C9420
:1011C0003F095F3FE4F3983ED4F3869577956795A2
:1011D000B795F795E7959F5FC1F7FE2B880F911D97
:1011E0009695879597F9089597F99F6780E870E03D
:1011F00060E008959FEF80EC089500240A9416168D
:10120000170618060906089500240A9412161306F4
:10121000140605060895092E0394000C11F4882382
:1012200052F0BB0F40F4BF2B11F460FF04C06F5F9E
:101230007F4F8F4F9F4F089557FD9058440F551F74
:1012400059F05F3F71F04795880F97FB991F61F048
:101250009F3F79F087950895121613061406551FBF
:10126000F2CF4695F1DF08C0161617061806991F2B
:10127000F1CF86957105610508940895E894BB2720
:1012800066277727CB0197F908950E945009A59FFB
:10129000900DB49F900DA49F800D911D1124089571
:1012A000A29FB001B39FC001A39F700D811D1124A7
:1012B000911DB29F700D811D1124911D0895F89408
:0212C000FFCF5E
:1012C20000000000FB017701C401A201B601420245
:1012D2000D0A005374617274696E672E2E2E0053CC
:1012E200004F004C005400520051005700430000D0
:00000001FF
