:100000000C9462000C948A000C948A000C948A0070
:100010000C948A000C948A000C948A000C948A0038
:100020000C948A000C948A000C948A000C948A0028
:100030000C948A000C948A000C948A000C948A0018
:100040000C94FA030C948A000C94B4060C94E60603
:100050000C948A000C948A000C948A000C948A00F8
:100060000C948A000C948A00000000080002010031
:100070000003040700000000000000000102040863
:100080001020408001020408102001020408102002
:10009000040404040404040402020202020203032E
:1000A00003030303000000002300260029000000D2
:1000B0000000250028002B0000000000240027007D
:1000C0002A00160711241FBECFEFD8E0DEBFCDBF38
:1000D00011E0A0E0B1E0E2E7F5E102C005900D9289
:1000E000A634B107D9F722E0A6E4B1E001C01D9221
:1000F000A633B207E1F710E0C4ECD0E004C02297C9
:10010000FE010E94A40AC23CD107C9F70E9444091B
:100110000C94B70A0C940000CF92DF92EF92FF92FA
:100120000F931F93CF93DF9382E090E0A0E0B0E0C5
:100130008093760190937701A0937801B093790131
:1001400080918E0190918F018230910509F47AC0DF
:1001500034F4009761F0019709F461C0B8C28330AC
:10016000910509F494C0049709F4FFC1B0C20E943C
:1001700050046093720170937301809374019093A3
:10018000750180918C0190918D01892B09F09FC29E
:1001900082E00E944605019751F40E94500460934A
:1001A00072017093730180937401909375010E94A2
:1001B00050046B017C018091720190917301A091B8
:1001C0007401B0917501C81AD90AEA0AFB0A20E045
:1001D00034E244E759E4609146017091470180910F
:1001E0004801909149010E94120A0E9453096C151E
:1001F0007D058E059F0528F681E090E090938F01A4
:1002000080938E010E945004AB01BC0140936E01AB
:1002100050936F0160937001709371014AC289E934
:1002200091E00E9488059093810180938001C0979E
:10023000029708F04CC282E090E090938F01809387
:100240008E0145C283E00E94460590937D01809314
:100250007C01019709F03BC26AE071E089E991E015
:100260000E9497070E945004AB01BC012AE030E0D5
:1002700089E991E00E94240883E090E090938F0147
:1002800080938E0110927B0110927A0120C282E04D
:100290000E944605EC018091880190918901C81760
:1002A000D90751F00E94500460935A0170935B018A
:1002B00080935C0190935D0183E00E9446059093DA
:1002C0007D0180937C01009769F480918201909177
:1002D00083010197C1F181E090E090937B018093CD
:1002E0007A0131C0019779F5809182019091830163
:1002F000019749F100917A0110917B0101301105BC
:1003000011F50E94500460936A0170936B01809311
:100310006C0190936D0110938301009382016CE056
:1003200071E089E991E00E9497070E945004AB01B7
:10033000BC012AE030E089E991E00E942408109293
:100340007B0110927A010E94500400915A01109191
:100350005B0120915C0130915D01601B710B820B90
:10036000930B009106011091070120910801309133
:1003700009010617170728073907B8F58091860184
:1003800090918701C817D90781F1D0938701C09355
:1003900086016C2F88E00E941005E0908601F090A5
:1003A000870181E0E816F10401F56EE071E089E96A
:1003B00091E00E9497070E945004AB01BC012AE023
:1003C00030E089E991E00E9424080E9450040091E5
:1003D0006A0110916B0120916C0130916D016017E1
:1003E00071078207930709F0F5C000917E01109113
:1003F0007F010130110509F03FC00E9450046B01DC
:100400007C018091660190916701A0916801B09193
:100410006901C81AD90AEA0AFB0A20E034E244E773
:1004200059E460915201709153018091540190916F
:1004300055010E94120A0E9453096C157D058E0514
:100440009F0598F660E085E00E94100560E089E075
:100450000E9410050E94500460935E0170935F013A
:10046000809360019093610110938B0100938A0146
:1004700010927F0110927E01D0938901C093880170
:100480000E9450046B017C0180916A0190916B0184
:10049000A0916C01B0916D01C81AD90AEA0AFB0A51
:1004A00020E034E244E759E460914E0170914F013D
:1004B00080915001909151010E94120A0E945309AB
:1004C000C616D706E806F90608F401C18091820134
:1004D00090918301019709F0FAC084E090E0909335
:1004E0008F0180938E01109283011092820168E146
:1004F00071E089E991E00E9497070E945004AB01E6
:10050000BC01D7C00E945004C0906201D09063012A
:10051000E0906401F09065016C197D098E099F09D6
:10052000C0905601D0905701E0905801F0905901C9
:10053000C616D706E806F906C0F464E171E089E959
:1005400091E00E9497070E945004AB01BC012AE091
:1005500030E089E991E00E94240810928501109210
:10056000840110928F0110928E01809184019091EC
:100570008501019739F280918A0190918B01019751
:10058000E9F466E171E089E991E00E949707409102
:100590005E0150915F0160916001709161012AE0FC
:1005A00030E089E991E00E94240810928B011092BA
:1005B0008A0110927F0110927E01DDCF809184012B
:1005C00090918501019709F482C010928F011092D9
:1005D0008E017DC00E94500400916A0110916B0150
:1005E00020916C0130916D01601B710B820B930B9C
:1005F00060387F448241910508F0F7CE80918001F8
:1006000090918101C097F1F460E171E089E991E096
:100610000E9497070E945004AB01BC012AE030E021
:1006200089E991E00E942408F0928501E09284011A
:100630000E9450046093620170936301809364018F
:10064000909365018091800190918101C19709F09B
:10065000CCCE80918A0190918B01892B09F0C5CE77
:1006600062E171E089E991E00E9497070E945004DD
:10067000AB01BC012AE030E089E991E00E94240846
:1006800061E085E00E94100561E089E00E941005AC
:100690000E94500460936601709367018093680123
:1006A0009093690181E090E090937F0180937E01B7
:1006B0009CCE2AE030E089E991E0DF91CF911F9153
:1006C0000F91FF90EF90DF90CF900C942408DF9172
:1006D000CF911F910F91FF90EF90DF90CF900895F1
:1006E00060E082E00E94D70461E085E00E94D704C8
:1006F00060E083E00E94D70461E088E00E94D704B4
:1007000061E089E00E94D70426E040E855E260E01D
:1007100070E089E991E00E9452066AE171E089E99E
:1007200091E00E94A40789E991E00E94A00761E698
:1007300089E991E00E94B60789E991E00E94880565
:100740008136D1F789E991E00E94CB0589E991E0F2
:100750000E946F0518161906CCF741E060E070E0C2
:1007600089E991E00E94A7086093460170934701D0
:10077000809348019093490141E060E070E089E98D
:1007800091E00E94A70860935201709353018093F7
:1007900054019093550141E060E070E089E991E0F7
:1007A0000E94A70860934E0170934F0180935001FF
:1007B0009093510141E060E070E089E991E00E948E
:1007C000A70860934A0170934B0180934C0190936A
:1007D0004D0120E034E244E759E40E94120A0E94ED
:1007E0005309609356017093570180935801909379
:1007F000590108951F920F920FB60F9211242F9353
:100800003F938F939F93AF93BF938091910190916A
:100810009201A0919301B09194013091900123E055
:10082000230F2D3720F40196A11DB11D05C026E828
:10083000230F0296A11DB11D209390018093910179
:1008400090939201A0939301B093940180919501AC
:1008500090919601A0919701B09198010196A11DE8
:10086000B11D8093950190939601A0939701B09349
:100870009801BF91AF919F918F913F912F910F90D0
:100880000FBE0F901F9018952FB7F89460919101AB
:100890007091920180919301909194012FBF0895DE
:1008A0003FB7F8948091950190919601A09197019E
:1008B000B091980126B5A89B05C02F3F19F001966D
:1008C000A11DB11D3FBF6627782F892F9A2F620F78
:1008D000711D811D911D42E0660F771F881F991FB2
:1008E0004A95D1F70895789484B5826084BD84B523
:1008F000816084BD85B5826085BD85B5816085BD1B
:10090000EEE6F0E0808181608083E1E8F0E0108233
:10091000808182608083808181608083E0E8F0E074
:10092000808181608083E1EBF0E08081846080835E
:10093000E0EBF0E0808181608083EAE7F0E0808195
:1009400084608083808182608083808181608083F5
:100950008081806880831092C1000895833081F087
:1009600028F4813099F08230A1F008958730A9F001
:100970008830B9F08430D1F4809180008F7D03C03D
:10098000809180008F7780938000089584B58F7761
:1009900002C084B58F7D84BD08958091B0008F77AB
:1009A00003C08091B0008F7D8093B0000895CF93F5
:1009B000DF9390E0FC01E458FF4F2491FC01E057E5
:1009C000FF4F8491882349F190E0880F991FFC0123
:1009D000E854FF4FA591B49182559F4FFC01C591FA
:1009E000D4919FB7611108C0F8948C91209582230F
:1009F0008C93888182230AC0623051F4F8948C91E0
:100A0000322F309583238C938881822B888304C076
:100A1000F8948C91822B8C939FBFDF91CF91089596
:100A20000F931F93CF93DF931F92CDB7DEB7282F7D
:100A300030E0F901E859FF4F8491F901E458FF4F84
:100A40001491F901E057FF4F04910023C9F0882366
:100A500021F069830E94AE046981E02FF0E0EE0F7F
:100A6000FF1FE255FF4FA591B4919FB7F8948C9169
:100A7000611103C01095812301C0812B8C939FBF0E
:100A80000F90DF91CF911F910F910895CF93DF9336
:100A9000282F30E0F901E859FF4F8491F901E4581B
:100AA000FF4FD491F901E057FF4FC491CC2391F04F
:100AB00081110E94AE04EC2FF0E0EE0FFF1FEC5509
:100AC000FF4FA591B4912C912D2381E090E021F46A
:100AD00080E002C080E090E0DF91CF910895FC01BA
:100AE000818D228D90E0805C9F4F821B91098F73D6
:100AF00099270895FC01918D828D981731F0828D90
:100B0000E80FF11D858D90E008958FEF9FEF089518
:100B1000FC01918D828D981761F0828DDF01A80F05
:100B2000B11D5D968C91928D9F5F9F73928F90E027
:100B300008958FEF9FEF08958CE097E0892B49F09F
:100B400080E090E0892B29F00E940C0781110C9421
:100B500000000895FC01848DDF01A80FB11DA35A88
:100B6000BF4F2C91848D90E001968F739927848FCD
:100B7000A689B7892C93A089B1898C9180648C93C4
:100B8000938D848D981306C00288F389E02D8081AF
:100B90008F7D80830895CF93DF93EC01888D882328
:100BA000C9F0EA89FB89808185FD05C0A889B989DA
:100BB0008C9186FD0FC00FB607FCF5CF808185FFB5
:100BC000F2CFA889B9898C9185FFEDCFCE010E9423
:100BD000AA05E7CFDF91CF910895CF92DF92FF92E0
:100BE0000F931F93CF93DF931F92CDB7DEB76C01A6
:100BF00081E0D60158968C9358975B969C915B97B1
:100C00005C968C915C97981307C05096ED91FC917F
:100C10005197808185FD2EC0F601038D10E00F5F96
:100C20001F4F0F731127F02EF601848DF81211C09B
:100C30000FB607FCF9CFD6015096ED91FC91519774
:100C4000808185FFF1CFC60169830E94AA05698171
:100C5000EBCF838DE80FF11DE35AFF4F6083D60180
:100C60005B960C935B975296ED91FC915397808124
:100C700080620CC0D6015696ED91FC915797608327
:100C80005096ED91FC91519780818064808381E042
:100C900090E00F90DF91CF911F910F91FF90DF9027
:100CA000CF900895BF92CF92DF92EF92FF92CF93B1
:100CB000DF93EC016A017B01B22EE889F98982E0B9
:100CC0008083411581EE580761057105A1F060E050
:100CD00079E08DE390E0A70196010E94750A21500A
:100CE00031094109510956954795379527952115A1
:100CF00080E1380798F0E889F989108260E874E8A3
:100D00008EE190E0A70196010E94750A21503109F9
:100D1000410951095695479537952795EC85FD85ED
:100D20003083EE85FF852083188EEC89FD89B082A3
:100D3000EA89FB89808180618083EA89FB898081DF
:100D400088608083EA89FB89808180688083EA8962
:100D5000FB8980818F7D8083DF91CF91FF90EF9021
:100D6000DF90CF90BF9008951F920F920FB60F9211
:100D700011242F938F939F93EF93FF93E091A901F9
:100D8000F091AA018081E091AF01F091B00182FD64
:100D900012C090818091B2018F5F8F732091B30157
:100DA000821751F0E091B201F0E0E756FE4F958FC7
:100DB0008093B20101C08081FF91EF919F918F914B
:100DC0002F910F900FBE0F901F9018951F920F92AA
:100DD0000FB60F9211242F933F934F935F936F930E
:100DE0007F938F939F93AF93BF93EF93FF9389E983
:100DF00091E00E94AA05FF91EF91BF91AF919F9161
:100E00008F917F916F915F914F913F912F910F90B3
:100E10000FBE0F901F90189589E991E00E946F0511
:100E200021E0892B09F420E0822F089510929C0183
:100E300010929B0188EE93E0A0E0B0E080939D01CA
:100E400090939E01A0939F01B093A0018AE291E04C
:100E500090939A018093990185EC90E09093A6017C
:100E60008093A50184EC90E09093A8018093A70162
:100E700080EC90E09093AA018093A90181EC90E02E
:100E80009093AC018093AB0182EC90E09093AE0123
:100E90008093AD0186EC90E09093B0018093AF0118
:100EA0001092B2011092B3011092B4011092B501E8
:100EB0000895CF92DF92EF92FF920F931F93CF93FB
:100EC000DF937C016A01EB0100E010E00C151D05C9
:100ED00071F06991D701ED91FC910190F081E02DC5
:100EE000C7010995892B19F00F5F1F4FEFCFC8017C
:100EF000DF91CF911F910F91FF90EF90DF90CF90F6
:100F000008956115710581F0DB010D900020E9F76E
:100F1000AD0141505109461B570BDC01ED91FC918D
:100F20000280F381E02D099480E090E008950C9414
:100F30008107DC01ED91FC910190F081E02D099495
:100F400066E371E00C9481070F931F93CF93DF93B7
:100F5000EC010E9481078C01CE010E94A007800F46
:100F6000911FDF91CF911F910F9108950F931F93C0
:100F7000CF93DF93EC010E9499078C01CE010E9470
:100F8000A007800F911FDF91CF911F910F910895BE
:100F90008F929F92AF92BF92DF92EF92FF920F9348
:100FA0001F93CF93DF93CDB7DEB7A1970FB6F89419
:100FB000DEBF0FBECDBF7C01F42FD52ECB0119A211
:100FC000223008F42AE08E010F5D1F4F822E912CF3
:100FD000A12CB12C6F2F7D2DA50194010E94750AC3
:100FE000F22FD32ECA01015011096A3014F4E0E344
:100FF00001C0E7E3E60FD801EC93232B242B252B2C
:1010000049F7B801C7010E948107A1960FB6F8946D
:10101000DEBF0FBECDBFDF91CF911F910F91FF902B
:10102000EF90DF90BF90AF909F908F900895211523
:10103000310541F4DC01ED91FC910190F081E02D4E
:10104000642F09940C94C8070F931F93CF93DF93D9
:10105000EC010E9417088C01CE010E94A007800FAE
:10106000911FDF91CF911F910F9108950F931F93BF
:10107000CF93DF93EC010E944404688779878A87C5
:101080009B87E881F9810084F185E02DCE010995E7
:1010900097FF15C00E944404088519852A853B8561
:1010A000601B710B820B930B0C811D812E813F8184
:1010B000601771078207930720F38FEF9FEFDF918F
:1010C000CF911F910F910895FF920F931F93CF938C
:1010D000DF93EC018B01F42ECE010E9436089C01B7
:1010E00097FD28C08D32910519F1C0970A9710F12C
:1010F000FF2019F02E323105F9F001301105F9F019
:101100000230110569F42D30310551F034F42950C5
:1011100031092230310520F012C02032310579F436
:10112000E881F9810680F781E02DCE010995D4CFC1
:101130008DE203C0C90105C08EE290E002C08FEFCE
:101140009FEFDF91CF911F910F91FF9008956F92C4
:101150007F928F929F92AF92BF92CF92DF92EF9247
:10116000FF920F931F93CF93DF93EC01042F41E085
:101170000E946408FC0197FD74C0812C912C80E8CA
:10118000A82E8FE3B82EC12CD12C7601712C612CA6
:10119000112707FD1095E017F10791F1ED32F105E8
:1011A00051F1EE32F10551F1CF01C0970A9740F5A8
:1011B000AAE0B0E0A70196010E94970A6B017C01AA
:1011C000CF01AA2797FDA095BA2FC80ED91EEA1EF7
:1011D000FB1E80E3C81AD108E108F108772081F0EE
:1011E0002DEC3CEC4CEC5DE3C501B4010E94120A0D
:1011F0004B015C0105C06624639402C0772473949C
:10120000E881F9810680F781E02DCE010995CE01B4
:101210000E943608FC01C0970A9708F4BCCFEE3252
:10122000F10519F4772009F4B6CFE017F10709F4B6
:10123000B2CF662041F0F094E094D094C094C11CE9
:10124000D11CE11CF11CC701B601772039F00E94C6
:101250008609A50194010E94120A06C00E9486090F
:1012600003C060E070E0CB01DF91CF911F910F913F
:10127000FF90EF90DF90CF90BF90AF909F908F90B6
:101280007F906F90089508950E9473040E9443090F
:101290000E947003CCE9D5E00E948C002097E1F316
:1012A0000E949C05F9CF04D06894B111B5C008958F
:1012B00098D088F09F5790F0B92F9927B751A0F098
:1012C000D1F0660F771F881F991F1AF0BA95C9F7DA
:1012D00012C0B13081F09FD0B1E008959CC0672F5B
:1012E000782F8827B85F39F0B93FCCF3869577958A
:1012F0006795B395D9F73EF4909580957095619573
:101300007F4F8F4F9F4F0895E89409C097FB3EF49D
:1013100090958095709561957F4F8F4F9F4F992342
:10132000A9F0F92F96E9BB279395F69587957795C0
:101330006795B795F111F8CFFAF4BB0F11F460FF80
:101340001BC06F5F7F4F8F4F9F4F16C0882311F0D8
:1013500096E911C0772321F09EE8872F762F05C0EC
:10136000662371F096E8862F70E060E02AF09A9587
:10137000660F771F881FDAF7880F9695879597F97C
:10138000089597F99F6780E870E060E008959FEF07
:1013900080EC089500240A9416161706180609060C
:1013A000089500240A9412161306140605060895DB
:1013B000092E0394000C11F4882352F0BB0F40F463
:1013C000BF2B11F460FF04C06F5F7F4F8F4F9F4FA3
:1013D000089557FD9058440F551F59F05F3F71F025
:1013E0004795880F97FB991F61F09F3F79F087958C
:1013F0000895121613061406551FF2CF4695F1DF15
:1014000008C0161617061806991FF1CF86957105A4
:10141000610508940895E894BB2766277727CB01D8
:1014200097F908950BD0C4CFB5DF28F0BADF18F0D4
:10143000952309F0A6CFABCF1124EECFCADFA0F3DE
:10144000959FD1F3950F50E0551F629FF001729F59
:10145000BB27F00DB11D639FAA27F00DB11DAA1F78
:10146000649F6627B00DA11D661F829F2227B00DC5
:10147000A11D621F739FB00DA11D621F839FA00D50
:10148000611D221F749F3327A00D611D231F849FA0
:10149000600D211D822F762F6A2F11249F575040F7
:1014A0008AF0E1F088234AF0EE0FFF1FBB1F661F92
:1014B000771F881F91505040A9F79E3F510570F04B
:1014C00060CFAACF5F3FECF3983EDCF3869577952B
:1014D0006795B795F795E7959F5FC1F7FE2B880F46
:1014E000911D9695879597F90895A1E21A2EAA1B4A
:1014F000BB1BFD010DC0AA1FBB1FEE1FFF1FA217C4
:10150000B307E407F50720F0A21BB30BE40BF50BC0
:10151000661F771F881F991F1A9469F76095709549
:10152000809590959B01AC01BD01CF0108950E946B
:10153000A80AA59F900DB49F900DA49F800D911DAA
:1015400011240895EE0FFF1F0590F491E02D0994EA
:10155000A29FB001B39FC001A39F700D811D1124F4
:10156000911DB29F700D811D1124911D0895F89455
:02157000FFCFAB
:10157200000036028000581B000053004F004C0050
:101582005400520051005700430053746172746951
:101592006E672E2E2E0000000000ED0559076F0524
:1015A20088057A05CB050D0A006E616E00696E66CC
:0615B200006F76660000E8
:00000001FF
