:100000000C9462000C948A000C948A000C948A0070
:100010000C948A000C948A000C948A000C948A0038
:100020000C948A000C948A000C948A000C948A0028
:100030000C948A000C948A000C948A000C948A0018
:100040000C94F9030C948A000C94D0060C940207CB
:100050000C948A000C948A000C948A000C948A00F8
:100060000C948A000C948A00000000080002010031
:100070000003040700000000000000000102040863
:100080001020408001020408102001020408102002
:10009000040404040404040402020202020203032E
:1000A00003030303000000002300260029000000D2
:1000B0000000250028002B0000000000240027007D
:1000C0002A00320711241FBECFEFD8E0DEBFCDBF1C
:1000D00011E0A0E0B1E0E2E4F7E102C005900D928A
:1000E000AA35B107D9F722E0AAE5B1E001C01D9217
:1000F000A633B207E1F710E0C4ECD0E004C02297C9
:10010000FE010E94270BC23CD107C9F70E94A80933
:100110000C949F0B0C940000CF92DF92EF92FF9211
:100120000F931F93CF93DF9380918E0190918F0156
:100130008230910509F498C034F4009761F001977A
:1001400009F47FC0D2C28330910509F4B2C004978C
:1001500009F41CC2CAC20E944F04609372017093DA
:100160007301809374019093750120E231EA47E0B6
:1001700050E060E070E0CB010E948B096093760153
:1001800070937701809378019093790180918C012D
:1001900090918D01892B09F0A8C282E00E9462052E
:1001A000019751F40E944F046093720170937301A0
:1001B00080937401909375010E944F046B017C0140
:1001C0008091720190917301A0917401B0917501B9
:1001D000C81AD90AEA0AFB0A20E034E244E759E4E3
:1001E00060910E0170910F018091100190911101A9
:1001F0000E94760A0E94B70900917601109177015A
:100200002091780130917901600F711F821F931F37
:100210006C157D058E059F0508F0B8CF81E090E054
:1002200090938F0180938E010E944F04AB01BC011B
:1002300040936E0150936F01609370017093710150
:1002400046C289E991E00E94A405909387018093BA
:100250008601C097029708F048C282E090E0909330
:100260008F0180938E0141C283E00E9462059093CA
:10027000830180938201019709F037C26FE171E039
:1002800089E991E00E94B3070E944F04AB01BC01D1
:100290002AE030E089E991E00E94400883E090E0A4
:1002A00090938F0180938E0110927D0110927C01BA
:1002B0001CC282E00E9462057C0180918A019091BB
:1002C0008B01E816F90651F00E944F0460935A0121
:1002D00070935B0180935C0190935D0183E00E94C9
:1002E00062059093830180938201009769F4809165
:1002F0007E0190917F010197C1F181E090E09093A0
:100300007D0180937C0131C0019779F580917E0158
:1003100090917F01019749F1C0917C01D0917D01BD
:10032000C130D10511F50E944F0460936A017093AA
:100330006B0180936C0190936D01D0937F01C0930A
:100340007E0161E271E089E991E00E94B3070E94B9
:100350004F04AB01BC012AE030E089E991E00E9442
:10036000400810927D0110927C010E944F04009180
:100370005A0110915B0120915C0130915D01601B7D
:10038000710B820B930B00910A0110910B012091CC
:100390000C0130910D01061717072807390778F56A
:1003A0008091880190918901E816F90641F1F09257
:1003B0008901E092880181E0E816F10401F563E229
:1003C00071E089E991E00E94B3070E944F04AB01FC
:1003D000BC012AE030E089E991E00E9440080E94D7
:1003E0004F0400916A0110916B0120916C013091D2
:1003F0006D01601771078207930709F0FDC0F09245
:100400008B01E0928A01C0918401D0918501C130B5
:10041000D105E9F580917A0190917B01892BB9F59D
:100420000E944F046B017C018091660190916701ED
:10043000A0916801B0916901C81AD90AEA0AFB0AB9
:1004400020E034E244E759E460911A0170911B0105
:1004500080911C0190911D010E94760A0E94B709AB
:100460006C157D058E059F0570F660E085E00E94A5
:100470002C050E944F0460935E0170935F0180938E
:10048000600190936101D0937B01C0937A010E9437
:100490004F046B017C0180916A0190916B01A091E6
:1004A0006C01B0916D01C81AD90AEA0AFB0A20E072
:1004B00034E244E759E4609116017091170180918C
:1004C0001801909119010E94760A0E94B709C61678
:1004D000D706E806F90608F408C180917E019091DC
:1004E0007F01019709F001C184E090E090938F01B2
:1004F00080938E0110927F0110927E016DE271E077
:1005000089E991E00E94B3070E944F04AB01BC014E
:10051000DEC00E944F046B017C01809162019091CA
:100520006301A0916401B0916501C81AD90AEA0A71
:10053000FB0A20E034E244E759E460911201709133
:10054000130180911401909115010E94760A0E9476
:10055000B7096C157D058E059F05C0F469E271E051
:1005600089E991E00E94B3070E944F04AB01BC01EE
:100570002AE030E089E991E00E9440081092810170
:100580001092800110928F0110928E018091800153
:1005900090918101019709F4BCCF80917A019091EB
:1005A0007B010197E9F46BE271E089E991E00E9437
:1005B000B30740915E0150915F01609160017091BD
:1005C00061012AE030E089E991E00E944008109240
:1005D0007B0110927A011092850110928401DDCF87
:1005E0008091800190918101019709F47EC0109261
:1005F0008F0110928E0179C00E944F0400916A0110
:1006000010916B0120916C0130916D01601B710B99
:10061000820B930B60387F448241910508F0EFCE46
:100620008091860190918701C097F1F465E271E0B5
:1006300089E991E00E94B3070E944F04AB01BC011D
:100640002AE030E089E991E00E944008F0928101BF
:10065000E09280010E944F046093620170936301F5
:100660008093640190936501809186019091870148
:10067000C19709F0C4CE8091840190918501892BA6
:1006800009F0BDCE67E271E089E991E00E94B3070D
:100690000E944F04AB01BC012AE030E089E991E0FF
:1006A0000E94400861E085E00E942C050E944F04F2
:1006B000609366017093670180936801909369016C
:1006C00081E090E0909385018093840198CE2AE0A8
:1006D00030E089E991E0DF91CF911F910F91FF9078
:1006E000EF90DF90CF900C944008DF91CF911F9155
:1006F0000F91FF90EF90DF90CF90089560E082E03F
:100700000E94F30461E085E00E94F30460E083E06E
:100710000E94F30426E040E855E260E070E089E9D9
:1007200091E00E946E066FE271E089E991E00E941B
:10073000C00789E991E00E94BC0761E689E991E080
:100740000E94D20789E991E00E94A4058136D1F781
:1007500089E991E00E94E70589E991E00E948B0513
:1007600018161906CCF741E060E070E089E991E0E5
:100770000E94C30860930E0170930F0180931001D3
:100780009093110141E060E070E089E991E00E94FE
:10079000C30860931A0170931B0180931C0190930E
:1007A0001D0141E060E070E089E991E00E94C3082A
:1007B00060931601709317018093180190931901AB
:1007C00041E060E070E089E991E00E94C308609335
:1007D000120170931301809314019093150180E02E
:1007E0000E94AD04BC01882777FD8095982F0C945A
:1007F0005F091F920F920FB60F9211242F933F9310
:100800008F939F93AF93BF938091910190919201A9
:10081000A0919301B09194013091900123E0230FB6
:100820002D3720F40196A11DB11D05C026E8230F28
:100830000296A11DB11D2093900180939101909388
:100840009201A0939301B0939401809195019091AE
:100850009601A0919701B09198010196A11DB11D3B
:100860008093950190939601A0939701B09398017E
:10087000BF91AF919F918F913F912F910F900FBE9C
:100880000F901F9018952FB7F89460919101709177
:10089000920180919301909194012FBF08953FB7E9
:1008A000F8948091950190919601A0919701B09153
:1008B000980126B5A89B05C02F3F19F00196A11DF0
:1008C000B11D3FBF6627782F892F9A2F620F711DA8
:1008D000811D911D42E0660F771F881F991F4A9561
:1008E000D1F70895789484B5826084BD84B5816021
:1008F00084BD85B5826085BD85B5816085BDEEE628
:10090000F0E0808181608083E1E8F0E01082808106
:1009100082608083808181608083E0E8F0E0808174
:1009200081608083E1EBF0E0808184608083E0EB94
:10093000F0E0808181608083EAE7F0E0808184607C
:1009400080838081826080838081816080838081D8
:10095000806880831092C10008958E3008F08E5018
:10096000877020911E0190E4299F90011124822B11
:1009700080937C0080917A00806480937A008091DB
:100980007A0086FDFCCF809178002091790090E07C
:10099000922B0895833081F028F4813099F08230D1
:1009A000A1F008958730A9F08830B9F08430D1F4EF
:1009B000809180008F7D03C0809180008F7780932D
:1009C0008000089584B58F7702C084B58F7D84BD83
:1009D00008958091B0008F7703C08091B0008F7D23
:1009E0008093B0000895CF93DF9390E0FC01E4582A
:1009F000FF4F2491FC01E057FF4F8491882349F178
:100A000090E0880F991FFC01E854FF4FA591B49125
:100A100082559F4FFC01C591D4919FB7611108C0C9
:100A2000F8948C91209582238C93888182230AC02C
:100A3000623051F4F8948C91322F309583238C934B
:100A40008881822B888304C0F8948C91822B8C93AC
:100A50009FBFDF91CF9108950F931F93CF93DF93A3
:100A60001F92CDB7DEB7282F30E0F901E859FF4FCC
:100A70008491F901E458FF4F1491F901E057FF4FB9
:100A800004910023C9F0882321F069830E94CA04DD
:100A90006981E02FF0E0EE0FFF1FE255FF4FA591B7
:100AA000B4919FB7F8948C91611103C01095812384
:100AB00001C0812B8C939FBF0F90DF91CF911F912D
:100AC0000F910895CF93DF93282F30E0F901E85973
:100AD000FF4F8491F901E458FF4FD491F901E05799
:100AE000FF4FC491CC2391F081110E94CA04EC2FD6
:100AF000F0E0EE0FFF1FEC55FF4FA591B4912C9144
:100B00002D2381E090E021F480E002C080E090E0BD
:100B1000DF91CF910895FC01818D228D90E0805C62
:100B20009F4F821B91098F7399270895FC01918D26
:100B3000828D981731F0828DE80FF11D858D90E040
:100B400008958FEF9FEF0895FC01918D828D981786
:100B500061F0828DDF01A80FB11D5D968C91928DA1
:100B60009F5F9F73928F90E008958FEF9FEF08959E
:100B700088E297E0892B49F080E090E0892B29F00A
:100B80000E94280781110C9400000895FC01848DB7
:100B9000DF01A80FB11DA35ABF4F2C91848D90E0A7
:100BA00001968F739927848FA689B7892C93A08982
:100BB000B1898C9180648C93938D848D981306C039
:100BC0000288F389E02D80818F7D80830895CF9303
:100BD000DF93EC01888D8823C9F0EA89FB89808145
:100BE00085FD05C0A889B9898C9186FD0FC00FB617
:100BF00007FCF5CF808185FFF2CFA889B9898C9158
:100C000085FFEDCFCE010E94C605E7CFDF91CF91E2
:100C10000895CF92DF92FF920F931F93CF93DF93AC
:100C20001F92CDB7DEB76C0181E0D60158968C9348
:100C300058975B969C915B975C968C915C97981308
:100C400007C05096ED91FC915197808185FD2EC093
:100C5000F601038D10E00F5F1F4F0F731127F02E69
:100C6000F601848DF81211C00FB607FCF9CFD6013A
:100C70005096ED91FC915197808185FFF1CFC6018F
:100C800069830E94C6056981EBCF838DE80FF11D52
:100C9000E35AFF4F6083D6015B960C935B975296A5
:100CA000ED91FC915397808180620CC0D6015696DD
:100CB000ED91FC91579760835096ED91FC9151977F
:100CC00080818064808381E090E00F90DF91CF91FC
:100CD0001F910F91FF90DF90CF900895BF92CF9218
:100CE000DF92EF92FF92CF93DF93EC016A017B01D9
:100CF000B22EE889F98982E08083411581EE580798
:100D000061057105A1F060E079E08DE390E0A70155
:100D100096010E94D90A215031094109510956957D
:100D2000479537952795211580E1380798F0E88990
:100D3000F989108260E874E88EE190E0A7019601DD
:100D40000E94D90A21503109410951095695479508
:100D500037952795EC85FD853083EE85FF852083CB
:100D6000188EEC89FD89B082EA89FB8980818061D7
:100D70008083EA89FB89808188608083EA89FB8996
:100D8000808180688083EA89FB8980818F7D808370
:100D9000DF91CF91FF90EF90DF90CF90BF900895BB
:100DA0001F920F920FB60F9211242F938F939F9340
:100DB000EF93FF93E091A901F091AA018081E09166
:100DC000AF01F091B00182FD12C090818091B2011B
:100DD0008F5F8F732091B301821751F0E091B201C0
:100DE000F0E0E756FE4F958F8093B20101C08081FD
:100DF000FF91EF919F918F912F910F900FBE0F90C8
:100E00001F9018951F920F920FB60F9211242F93D7
:100E10003F934F935F936F937F938F939F93AF9382
:100E2000BF93EF93FF9389E991E00E94C605FF917C
:100E3000EF91BF91AF919F918F917F916F915F9152
:100E40004F913F912F910F900FBE0F901F901895CB
:100E500089E991E00E948B0521E0892B09F420E0CB
:100E6000822F089510929C0110929B0188EE93E0CE
:100E7000A0E0B0E080939D0190939E01A0939F011C
:100E8000B093A0018FE391E090939A018093990130
:100E900085EC90E09093A6018093A50184EC90E00E
:100EA0009093A8018093A70180EC90E09093AA0111
:100EB0008093A90181EC90E09093AC018093AB0109
:100EC00082EC90E09093AE018093AD0186EC90E0CF
:100ED0009093B0018093AF011092B2011092B301D0
:100EE0001092B4011092B5010895CF92DF92EF9263
:100EF000FF920F931F93CF93DF937C016A01EB0165
:100F000000E010E00C151D0571F06991D701ED911D
:100F1000FC910190F081E02DC7010995892B19F012
:100F20000F5F1F4FEFCFC801DF91CF911F910F913E
:100F3000FF90EF90DF90CF9008956115710581F0DB
:100F4000DB010D900020E9F7AD0141505109461B2E
:100F5000570BDC01ED91FC910280F381E02D0994A7
:100F600080E090E008950C949D07DC01ED91FC91E8
:100F70000190F081E02D09946BE471E00C949D07E1
:100F80000F931F93CF93DF93EC010E949D078C0179
:100F9000CE010E94BC07800F911FDF91CF911F915E
:100FA0000F9108950F931F93CF93DF93EC010E944D
:100FB000B5078C01CE010E94BC07800F911FDF9105
:100FC000CF911F910F9108958F929F92AF92BF92F0
:100FD000DF92EF92FF920F931F93CF93DF93CDB7E2
:100FE000DEB7A1970FB6F894DEBF0FBECDBF7C0170
:100FF000F42FD52ECB0119A2223008F42AE08E015D
:101000000F5D1F4F822E912CA12CB12C6F2F7D2DA7
:10101000A50194010E94D90AF22FD32ECA010150D2
:1010200011096A3014F4E0E301C0E7E3E60FD801E8
:10103000EC93232B242B252B49F7B801C7010E94E1
:101040009D07A1960FB6F894DEBF0FBECDBFDF910E
:10105000CF911F910F91FF90EF90DF90BF90AF90D5
:101060009F908F9008952115310541F4DC01ED9199
:10107000FC910190F081E02D642F09940C94E40719
:101080000F931F93CF93DF93EC010E9433088C01E1
:10109000CE010E94BC07800F911FDF91CF911F915D
:1010A0000F9108950F931F93CF93DF93EC010E944C
:1010B0004304688779878A879B87E881F981008460
:1010C000F185E02DCE01099597FF15C00E944304DC
:1010D000088519852A853B85601B710B820B930B54
:1010E0000C811D812E813F81601771078207930754
:1010F00020F38FEF9FEFDF91CF911F910F91089514
:10110000FF920F931F93CF93DF93EC018B01F42E8B
:10111000CE010E9452089C0197FD28C08D32910596
:1011200019F1C0970A9710F1FF2019F02E323105FE
:10113000F9F001301105F9F00230110569F42D3094
:10114000310551F034F4295031092230310520F0B5
:1011500012C02032310579F4E881F9810680F781E7
:10116000E02DCE010995D4CF8DE203C0C90105C0A1
:101170008EE290E002C08FEF9FEFDF91CF911F9141
:101180000F91FF9008956F927F928F929F92AF92EE
:10119000BF92CF92DF92EF92FF920F931F93CF9364
:1011A000DF93EC01042F41E00E948008FC0197FDD1
:1011B00074C0812C912C80E8A82E8FE3B82EC12C0E
:1011C000D12C7601712C612C112707FD1095E017A9
:1011D000F10791F1ED32F10551F1EE32F10551F1E6
:1011E000CF01C0970A9740F5AAE0B0E0A7019601A9
:1011F0000E941A0B6B017C01CF01AA2797FDA095D5
:10120000BA2FC80ED91EEA1EFB1E80E3C81AD108E9
:10121000E108F108772081F02DEC3CEC4CEC5DE32B
:10122000C501B4010E94760A4B015C0105C0662429
:10123000639402C077247394E881F9810680F78172
:10124000E02DCE010995CE010E945208FC01C09705
:101250000A9708F4BCCFEE32F10519F4772009F4AF
:10126000B6CFE017F10709F4B2CF662041F0F09451
:10127000E094D094C094C11CD11CE11CF11CC701A6
:10128000B601772039F00E94EA09A50194010E9475
:10129000760A06C00E94EA0903C060E070E0CB0154
:1012A000DF91CF911F910F91FF90EF90DF90CF9042
:1012B000BF90AF909F908F907F906F900895611531
:1012C00071058105910511F00C948E0B0895CF9353
:1012D000DF9300D000D0CDB7DEB79B01AC01611524
:1012E00071058105910569F069833A834B835C83BD
:1012F0000E94890B29813A814B815C810E94FB0A03
:1013000003C060E070E0CB010F900F900F900F9042
:10131000DF91CF910895CF92DF92EF92FF926B0110
:101320007C01621773078407950764F4CA01B90149
:101330006C197D098E099F090E9467096C0D7D1D3E
:101340008E1D9F1DFF90EF90DF90CF900895089520
:101350000E9472040E94A7090E947E03C8EBD5E098
:101360000E948C002097E1F30E94B805F9CF04D0C9
:101370006894B111B5C0089598D088F09F5790F047
:10138000B92F9927B751A0F0D1F0660F771F881FAA
:10139000991F1AF0BA95C9F712C0B13081F09FD0E9
:1013A000B1E008959CC0672F782F8827B85F39F087
:1013B000B93FCCF3869577956795B395D9F73EF409
:1013C00090958095709561957F4F8F4F9F4F0895B1
:1013D000E89409C097FB3EF49095809570956195CF
:1013E0007F4F8F4F9F4F9923A9F0F92F96E9BB2785
:1013F0009395F695879577956795B795F111F8CF01
:10140000FAF4BB0F11F460FF1BC06F5F7F4F8F4F6B
:101410009F4F16C0882311F096E911C0772321F061
:101420009EE8872F762F05C0662371F096E8862FF9
:1014300070E060E02AF09A95660F771F881FDAF750
:10144000880F9695879597F9089597F99F6780E893
:1014500070E060E008959FEF80EC089500240A9406
:101460001616170618060906089500240A9412167F
:101470001306140605060895092E0394000C11F4B2
:10148000882352F0BB0F40F4BF2B11F460FF04C05F
:101490006F5F7F4F8F4F9F4F089557FD9058440FB8
:1014A000551F59F05F3F71F04795880F97FB991FC3
:1014B00061F09F3F79F08795089512161306140680
:1014C000551FF2CF4695F1DF08C01616170618060D
:1014D000991FF1CF86957105610508940895E894E8
:1014E000BB2766277727CB0197F908950BD0C4CF88
:1014F000B5DF28F0BADF18F0952309F0A6CFABCFFF
:101500001124EECFCADFA0F3959FD1F3950F50E0E1
:10151000551F629FF001729FBB27F00DB11D639FA5
:10152000AA27F00DB11DAA1F649F6627B00DA11D4B
:10153000661F829F2227B00DA11D621F739FB00DF1
:10154000A11D621F839FA00D611D221F749F332761
:10155000A00D611D231F849F600D211D822F762FFA
:101560006A2F11249F5750408AF0E1F088234AF0F7
:10157000EE0FFF1FBB1F661F771F881F9150504043
:10158000A9F79E3F510570F060CFAACF5F3FECF303
:10159000983EDCF3869577956795B795F795E7952F
:1015A0009F5FC1F7FE2B880F911D9695879597F940
:1015B0000895A1E21A2EAA1BBB1BFD010DC0AA1F94
:1015C000BB1FEE1FFF1FA217B307E407F50720F0AC
:1015D000A21BB30BE40BF50B661F771F881F991F27
:1015E0001A9469F760957095809590959B01AC0170
:1015F000BD01CF010895052E97FB1EF400940E94B3
:10160000120B57FD07D00E94D90A07FC03D04EF4F5
:101610000C94120B50954095309521953F4F4F4FAC
:101620005F4F089590958095709561957F4F8F4F8E
:101630009F4F08950E942B0BA59F900DB49F900D76
:10164000A49F800D911D11240895EE0FFF1F05909A
:10165000F491E02D0994A29FB001B39FC001A39F14
:10166000700D811D1124911DB29F700D811D1124DB
:10167000911D08958F929F92AF92BF92CF92DF9269
:10168000EF92FF92CF93DF93EC01688179818A8199
:101690009B81611571058105910521F464E279ED65
:1016A0008BE597E02DE133EF41E050E00E94FB0A2B
:1016B00049015A019B01AC01A7EAB1E40E941A0B4F
:1016C0006B017C01ACEEB4EFA50194010E949A0B72
:1016D000C60ED71EE81EF91EF7FE06C081E0C81A26
:1016E000D108E10880E8F80AC882D982EA82FB8240
:1016F000C701B6019F77DF91CF91FF90EF90DF9008
:10170000CF90BF90AF909F908F9008950E943A0B1A
:10171000089586E091E00E943A0B089560930601D7
:101720007093070180930801909309010895B7FF12
:101730000C941A0B0E941A0B821B930B0895F894B9
:02174000FFCFD9
:1017420000003602800001000000581B0000002447
:10175200F449809FD54A007C92490050C347015307
:10176200004F004C005400520051005700430053F8
:1017720074617274696E672E2E2E000000000009DB
:101782000675078B05A4059605E7050D0A006E612F
:0A1792006E00696E66006F76660057
:00000001FF
