:100000000C9462000C948A000C948A000C948A0070
:100010000C948A000C948A000C948A000C948A0038
:100020000C948A000C948A000C948A000C948A0028
:100030000C948A000C948A000C948A000C948A0018
:100040000C9406040C948A000C94DD060C940F07A3
:100050000C948A000C948A000C948A000C948A00F8
:100060000C948A000C948A00000000080002010031
:100070000003040700000000000000000102040863
:100080001020408001020408102001020408102002
:10009000040404040404040402020202020203032E
:1000A00003030303000000002300260029000000D2
:1000B0000000250028002B0000000000240027007D
:1000C0002A003F0711241FBECFEFD8E0DEBFCDBF0F
:1000D00011E0A0E0B1E0ECE5F7E102C005900D927F
:1000E000AA35B107D9F722E0AAE5B1E001C01D9217
:1000F000A233B207E1F710E0C4ECD0E004C02297CD
:10010000FE010E94340BC23CD107C9F70E94B50919
:100110000C94AC0B0C940000CF92DF92EF92FF9204
:100120000F931F93CF93DF9380918A0190918B015E
:100130008230910509F48CC034F4009761F0019786
:1001400009F473C0D7C28330910509F4A6C004979F
:1001500009F419C2CFC20E945C0460936E017093CF
:100160006F01809370019093710120E231EA47E0C2
:1001700050E060E070E0CB010E949809609372014A
:10018000709373018093740190937501809188013D
:1001900090918901892B09F0ADC282E00E946F0520
:1001A000019751F40E945C0460936E0170936F019B
:1001B00080937001909371010E945C046B017C013B
:1001C00080916E0190916F01A0917001B0917101C9
:1001D000C81AD90AEA0AFB0A20E034E244E759E4E3
:1001E00060910E0170910F018091100190911101A9
:1001F0000E94830A0E94C409009172011091730148
:100200002091740130917501600F711F821F931F3F
:100210006C157D058E059F0508F0B8CF81E090E054
:1002200090938B0180938A0153C285E991E00E94EB
:10023000B1059093830180938201C097029708F0E3
:1002400059C282E090E090938B0180938A0152C260
:1002500083E00E946F0590937F0180937E01019758
:1002600009F048C26FE171E085E991E00E94C007A2
:100270000E945C04AB01BC012AE030E085E991E01A
:100280000E944D0883E090E090938B0180938A0157
:1002900010927901109278012DC282E00E946F05C0
:1002A0007C018091860190918701E816F90651F052
:1002B0000E945C0460935A0170935B0180935C011F
:1002C00090935D0183E00E946F0590937F0180937E
:1002D0007E01009769F480917A0190917B010197EA
:1002E000C1F181E090E0909379018093780131C071
:1002F000019779F580917A0190917B01019749F1FD
:10030000C0917801D0917901C130D10511F50E94D9
:100310005C0460936A0170936B0180936C0190930D
:100320006D01D0937B01C0937A0161E271E085E9B0
:1003300091E00E94C0070E945C04AB01BC012AE06E
:1003400030E085E991E00E944D0810927901109209
:1003500078010E945C0400915A0110915B01209188
:100360005C0130915D01601B710B820B930B00915E
:100370000A0110910B0120910C0130910D0106171B
:10038000170728073907B8F58091840190918501F6
:10039000E816F90681F1F0928501E09284016E2D54
:1003A00088E00E943905C0908401D090850181E0E9
:1003B000C816D10401F563E271E085E991E00E947D
:1003C000C0070E945C04AB01BC012AE030E085E973
:1003D00091E00E944D080E945C0400916A01109116
:1003E0006B0120916C0130916D01601771078207DC
:1003F000930709F0FEC0F0928701E0928601C09158
:100400008001D0918101C130D10509F041C08091B6
:10041000760190917701892BD9F50E945C046B01DC
:100420007C018091660190916701A0916801B09173
:100430006901C81AD90AEA0AFB0A20E034E244E753
:1004400059E460911A0170911B0180911C019091F7
:100450001D010E94830A0E94C4096C157D058E054A
:100460009F0568F660E085E00E94390560E089E05C
:100470000E9439050E945C0460935E0170935F01E5
:100480008093600190936101D0937701C0937601CE
:100490000E945C046B017C0180916A0190916B0168
:1004A000A0916C01B0916D01C81AD90AEA0AFB0A41
:1004B00020E034E244E759E460911601709117019D
:1004C00080911801909119010E94830A0E94C40929
:1004D000C616D706E806F90608F40CC180917A0121
:1004E00090917B01019709F005C184E090E0909321
:1004F0008B0180938A0110927B0110927A016DE248
:1005000071E085E991E00E94C007E2C00E945C04AE
:100510006B017C018091620190916301A091640163
:10052000B0916501C81AD90AEA0AFB0A20E034E250
:1005300044E759E460911201709113018091140114
:10054000909115010E94830A0E94C4096C157D05D3
:100550008E059F05C0F469E271E085E991E00E9493
:10056000C0070E945C04AB01BC012AE030E085E9D1
:1005700091E00E944D0810927D0110927C01109232
:100580008B0110928A0180917C0190917D010197ED
:1005900009F4BCCF80917601909177010197E9F43D
:1005A0006BE271E085E991E00E94C00740915E0135
:1005B00050915F0160916001709161012AE030E02B
:1005C00085E991E00E944D08109277011092760122
:1005D0001092810110928001DDCF80917C01909179
:1005E0007D01019709F486C010928B0110928A0157
:1005F00081C00E945C0400916A0110916B012091FE
:100600006C0130916D01601B710B820B930B603894
:100610007F448241910508F0EECE80918201909155
:100620008301C097F1F465E271E085E991E00E94F1
:10063000C0070E945C04AB01BC012AE030E085E900
:1006400091E00E944D08D0927D01C0927C010E94F1
:100650005C046093620170936301809364019093E2
:1006600065018091820190918301C19709F0C3CE09
:100670008091800190918101892B09F0BCCE67E2C5
:1006800071E085E991E00E94C0070E945C04AB0123
:10069000BC012AE030E085E991E00E944D0861E06C
:1006A00085E00E94390561E089E00E9439050E94D9
:1006B0005C04609366017093670180936801909376
:1006C000690181E090E0909381018093800193CE55
:1006D0000E945C04AB01BC012AE030E085E991E0B6
:1006E000DF91CF911F910F91FF90EF90DF90CF900E
:1006F0000C944D08DF91CF911F910F91FF90EF90D7
:10070000DF90CF90089560E082E00E94000561E0F4
:1007100085E00E94000560E083E00E94000561E042
:1007200089E00E94000561E088E00E94000526E063
:1007300040E855E260E070E085E991E00E947B06C8
:100740006FE271E085E991E00E94CD0785E991E0D3
:100750000E94C90761E685E991E00E94DF0785E90B
:1007600091E00E94B1058136D1F785E991E00E94C0
:10077000F40585E991E00E94980518161906CCF752
:1007800041E060E070E085E991E00E94D00860936C
:100790000E0170930F01809310019093110141E0BD
:1007A00060E070E085E991E00E94D00860931A0152
:1007B00070931B0180931C0190931D0141E060E048
:1007C00070E085E991E00E94D00860931601709373
:1007D0001701809318019093190141E060E070E0E7
:1007E00085E991E00E94D008609312017093130193
:1007F000809314019093150180E00E94BA04BC011B
:10080000882777FD8095982F0C946C091F920F9282
:100810000FB60F9211242F933F938F939F93AF9313
:10082000BF9380918D0190918E01A0918F01B09125
:10083000900130918C0123E0230F2D3720F4019695
:10084000A11DB11D05C026E8230F0296A11DB11DF3
:1008500020938C0180938D0190938E01A0938F0142
:10086000B09390018091910190919201A091930198
:10087000B09194010196A11DB11D809391019093B7
:100880009201A0939301B0939401BF91AF919F9176
:100890008F913F912F910F900FBE0F901F90189541
:1008A0002FB7F89460918D0170918E0180918F0126
:1008B000909190012FBF08953FB7F89480919101D6
:1008C00090919201A0919301B091940126B5A89BBB
:1008D00005C02F3F19F00196A11DB11D3FBF66272E
:1008E000782F892F9A2F620F711D811D911D42E073
:1008F000660F771F881F991F4A95D1F7089578943E
:1009000084B5826084BD84B5816084BD85B5826014
:1009100085BD85B5816085BDEEE6F0E080818160B2
:100920008083E1E8F0E010828081826080838081B2
:1009300081608083E0E8F0E0808181608083E1EB8A
:10094000F0E0808184608083E0EBF0E08081816072
:100950008083EAE7F0E08081846080838081826028
:100960008083808181608083808180688083109211
:10097000C10008958E3008F08E50877020911E01BE
:1009800090E4299F90011124822B80937C00809118
:100990007A00806480937A0080917A0086FDFCCF93
:1009A000809178002091790090E0922B0895833017
:1009B00081F028F4813099F08230A1F008958730D9
:1009C000A9F08830B9F08430D1F4809180008F7D17
:1009D00003C0809180008F7780938000089584B554
:1009E0008F7702C084B58F7D84BD08958091B0005B
:1009F0008F7703C08091B0008F7D8093B000089501
:100A0000CF93DF9390E0FC01E458FF4F2491FC0169
:100A1000E057FF4F8491882349F190E0880F991F98
:100A2000FC01E854FF4FA591B49182559F4FFC0102
:100A3000C591D4919FB7611108C0F8948C9120950D
:100A400082238C93888182230AC0623051F4F89407
:100A50008C91322F309583238C938881822B8883CD
:100A600004C0F8948C91822B8C939FBFDF91CF911F
:100A700008950F931F93CF93DF931F92CDB7DEB7E7
:100A8000282F30E0F901E859FF4F8491F901E4582B
:100A9000FF4F1491F901E057FF4F04910023C9F073
:100AA000882321F069830E94D7046981E02FF0E058
:100AB000EE0FFF1FE255FF4FA591B4919FB7F89439
:100AC0008C91611103C01095812301C0812B8C93FF
:100AD0009FBF0F90DF91CF911F910F910895CF93FA
:100AE000DF93282F30E0F901E859FF4F8491F90195
:100AF000E458FF4FD491F901E057FF4FC491CC2344
:100B000091F081110E94D704EC2FF0E0EE0FFF1F4F
:100B1000EC55FF4FA591B4912C912D2381E090E0ED
:100B200021F480E002C080E090E0DF91CF91089551
:100B3000FC01818D228D90E0805C9F4F821B91098A
:100B40008F7399270895FC01918D828D981731F04C
:100B5000828DE80FF11D858D90E008958FEF9FEF56
:100B60000895FC01918D828D981761F0828DDF01CF
:100B7000A80FB11D5D968C91928D9F5F9F73928F90
:100B800090E008958FEF9FEF089585E397E0892B1C
:100B900049F080E090E0892B29F00E94350781110F
:100BA0000C9400000895FC01848DDF01A80FB11D95
:100BB000A35ABF4F2C91848D90E001968F73992793
:100BC000848FA689B7892C93A089B1898C91806480
:100BD0008C93938D848D981306C00288F389E02D41
:100BE00080818F7D80830895CF93DF93EC01888D82
:100BF0008823C9F0EA89FB89808185FD05C0A88921
:100C0000B9898C9186FD0FC00FB607FCF5CF8081A6
:100C100085FFF2CFA889B9898C9185FFEDCFCE01F0
:100C20000E94D305E7CFDF91CF910895CF92DF9255
:100C3000FF920F931F93CF93DF931F92CDB7DEB731
:100C40006C0181E0D60158968C9358975B969C91E5
:100C50005B975C968C915C97981307C05096ED91CA
:100C6000FC915197808185FD2EC0F601038D10E027
:100C70000F5F1F4F0F731127F02EF601848DF812AE
:100C800011C00FB607FCF9CFD6015096ED91FC913B
:100C90005197808185FFF1CFC60169830E94D305FA
:100CA0006981EBCF838DE80FF11DE35AFF4F60831D
:100CB000D6015B960C935B975296ED91FC915397FE
:100CC000808180620CC0D6015696ED91FC915797B9
:100CD00060835096ED91FC91519780818064808370
:100CE00081E090E00F90DF91CF911F910F91FF90E5
:100CF000DF90CF900895BF92CF92DF92EF92FF9254
:100D0000CF93DF93EC016A017B01B22EE889F98968
:100D100082E08083411581EE580761057105A1F0DD
:100D200060E079E08DE390E0A70196010E94E60A79
:100D30002150310941095109569547953795279515
:100D4000211580E1380798F0E889F989108260E878
:100D500074E88EE190E0A70196010E94E60A215016
:100D60003109410951095695479537952795EC85E5
:100D7000FD853083EE85FF852083188EEC89FD8903
:100D8000B082EA89FB89808180618083EA89FB895E
:100D9000808188608083EA89FB8980818068808384
:100DA000EA89FB8980818F7D8083DF91CF91FF90DD
:100DB000EF90DF90CF90BF9008951F920F920FB6E3
:100DC0000F9211242F938F939F93EF93FF93E091B2
:100DD000A501F091A6018081E091AB01F091AC01F9
:100DE00082FD12C090818091AE018F5F8F73209140
:100DF000AF01821751F0E091AE01F0E0EB56FE4FEB
:100E0000958F8093AE0101C08081FF91EF919F91FA
:100E10008F912F910F900FBE0F901F9018951F92DA
:100E20000F920FB60F9211242F933F934F935F931E
:100E30006F937F938F939F93AF93BF93EF93FF93A2
:100E400085E991E00E94D305FF91EF91BF91AF91A9
:100E50009F918F917F916F915F914F913F912F91D2
:100E60000F900FBE0F901F90189585E991E00E949A
:100E7000980521E0892B09F420E0822F0895109233
:100E800098011092970188EE93E0A0E0B0E0809383
:100E9000990190939A01A0939B01B0939C018FE3D9
:100EA00091E0909396018093950185EC90E090936A
:100EB000A2018093A10184EC90E09093A40180931F
:100EC000A30180EC90E09093A6018093A50181ECB2
:100ED00090E09093A8018093A70182EC90E090931A
:100EE000AA018093A90186EC90E09093AC018093D5
:100EF000AB011092AE011092AF011092B0011092AE
:100F0000B1010895CF92DF92EF92FF920F931F935A
:100F1000CF93DF937C016A01EB0100E010E00C1538
:100F20001D0571F06991D701ED91FC910190F0815F
:100F3000E02DC7010995892B19F00F5F1F4FEFCFE7
:100F4000C801DF91CF911F910F91FF90EF90DF903B
:100F5000CF9008956115710581F0DB010D9000209F
:100F6000E9F7AD0141505109461B570BDC01ED91EA
:100F7000FC910280F381E02D099480E090E00895D7
:100F80000C94AA07DC01ED91FC910190F081E02D19
:100F900009946BE471E00C94AA070F931F93CF930D
:100FA000DF93EC010E94AA078C01CE010E94C907C1
:100FB000800F911FDF91CF911F910F9108950F9393
:100FC0001F93CF93DF93EC010E94C2078C01CE01E7
:100FD0000E94C907800F911FDF91CF911F910F9140
:100FE00008958F929F92AF92BF92DF92EF92FF92FD
:100FF0000F931F93CF93DF93CDB7DEB7A1970FB6B3
:10100000F894DEBF0FBECDBF7C01F42FD52ECB01EF
:1010100019A2223008F42AE08E010F5D1F4F822EA4
:10102000912CA12CB12C6F2F7D2DA50194010E9434
:10103000E60AF22FD32ECA01015011096A3014F4C6
:10104000E0E301C0E7E3E60FD801EC93232B242B68
:10105000252B49F7B801C7010E94AA07A1960FB630
:10106000F894DEBF0FBECDBFDF91CF911F910F91DE
:10107000FF90EF90DF90BF90AF909F908F9008957A
:101080002115310541F4DC01ED91FC910190F081D5
:10109000E02D642F09940C94F1070F931F93CF93C5
:1010A000DF93EC010E9440088C01CE010E94C90729
:1010B000800F911FDF91CF911F910F9108950F9392
:1010C0001F93CF93DF93EC010E94500468877987C8
:1010D0008A879B87E881F9810084F185E02DCE0124
:1010E000099597FF15C00E945004088519852A8527
:1010F0003B85601B710B820B930B0C811D812E8134
:101100003F81601771078207930720F38FEF9FEFEE
:10111000DF91CF911F910F910895FF920F931F932D
:10112000CF93DF93EC018B01F42ECE010E945F0878
:101130009C0197FD28C08D32910519F1C0970A973F
:1011400010F1FF2019F02E323105F9F001301105B0
:10115000F9F00230110569F42D30310551F034F405
:10116000295031092230310520F012C020323105DA
:1011700079F4E881F9810680F781E02DCE010995A7
:10118000D4CF8DE203C0C90105C08EE290E002C059
:101190008FEF9FEFDF91CF911F910F91FF900895F7
:1011A0006F927F928F929F92AF92BF92CF92DF9277
:1011B000EF92FF920F931F93CF93DF93EC01042FD5
:1011C00041E00E948D08FC0197FD74C0812C912C98
:1011D00080E8A82E8FE3B82EC12CD12C7601712C7B
:1011E000612C112707FD1095E017F10791F1ED3201
:1011F000F10551F1EE32F10551F1CF01C0970A9797
:1012000040F5AAE0B0E0A70196010E94270B6B0110
:101210007C01CF01AA2797FDA095BA2FC80ED91E31
:10122000EA1EFB1E80E3C81AD108E108F108772006
:1012300081F02DEC3CEC4CEC5DE3C501B4010E9467
:10124000830A4B015C0105C06624639402C07724C5
:101250007394E881F9810680F781E02DCE0109952C
:10126000CE010E945F08FC01C0970A9708F4BCCF2A
:10127000EE32F10519F4772009F4B6CFE017F10743
:1012800009F4B2CF662041F0F094E094D094C09479
:10129000C11CD11CE11CF11CC701B601772039F03B
:1012A0000E94F709A50194010E94830A06C00E94CA
:1012B000F70903C060E070E0CB01DF91CF911F918F
:1012C0000F91FF90EF90DF90CF90BF90AF909F90E5
:1012D0008F907F906F90089561157105810591053C
:1012E00011F00C949B0B0895CF93DF9300D000D0A6
:1012F000CDB7DEB79B01AC01611571058105910584
:1013000069F069833A834B835C830E94960B298141
:101310003A814B815C810E94080B03C060E070E061
:10132000CB010F900F900F900F90DF91CF91089508
:10133000CF92DF92EF92FF926B017C0162177307ED
:101340008407950764F4CA01B9016C197D098E09F7
:101350009F090E9474096C0D7D1D8E1D9F1DFF90BD
:10136000EF90DF90CF90089508950E947F040E942F
:10137000B4090E948303C5ECD5E00E948C0020973D
:10138000E1F30E94C505F9CF04D06894B111B5C04E
:10139000089598D088F09F5790F0B92F9927B751AA
:1013A000A0F0D1F0660F771F881F991F1AF0BA9529
:1013B000C9F712C0B13081F09FD0B1E008959CC050
:1013C000672F782F8827B85F39F0B93FCCF386951F
:1013D00077956795B395D9F73EF49095809570957C
:1013E00061957F4F8F4F9F4F0895E89409C097FBF9
:1013F0003EF490958095709561957F4F8F4F9F4FEC
:101400009923A9F0F92F96E9BB279395F69587952F
:1014100077956795B795F111F8CFFAF4BB0F11F4F2
:1014200060FF1BC06F5F7F4F8F4F9F4F16C0882399
:1014300011F096E911C0772321F09EE8872F762FCF
:1014400005C0662371F096E8862F70E060E02AF010
:101450009A95660F771F881FDAF7880F96958795FC
:1014600097F9089597F99F6780E870E060E0089524
:101470009FEF80EC089500240A94161617061806AC
:101480000906089500240A94121613061406050688
:101490000895092E0394000C11F4882352F0BB0F19
:1014A00040F4BF2B11F460FF04C06F5F7F4F8F4F7C
:1014B0009F4F089557FD9058440F551F59F05F3FB7
:1014C00071F04795880F97FB991F61F09F3F79F066
:1014D00087950895121613061406551FF2CF4695E8
:1014E000F1DF08C0161617061806991FF1CF86956A
:1014F0007105610508940895E894BB27662777274E
:10150000CB0197F908950BD0C4CFB5DF28F0BADF2F
:1015100018F0952309F0A6CFABCF1124EECFCADF88
:10152000A0F3959FD1F3950F50E0551F629FF001F6
:10153000729FBB27F00DB11D639FAA27F00DB11D4F
:10154000AA1F649F6627B00DA11D661F829F2227D8
:10155000B00DA11D621F739FB00DA11D621F839F5F
:10156000A00D611D221F749F3327A00D611D231F35
:10157000849F600D211D822F762F6A2F11249F5783
:1015800050408AF0E1F088234AF0EE0FFF1FBB1FA6
:10159000661F771F881F91505040A9F79E3F510545
:1015A00070F060CFAACF5F3FECF3983EDCF38695F6
:1015B00077956795B795F795E7959F5FC1F7FE2BF0
:1015C000880F911D9695879597F90895A1E21A2E97
:1015D000AA1BBB1BFD010DC0AA1FBB1FEE1FFF1FD7
:1015E000A217B307E407F50720F0A21BB30BE40B27
:1015F000F50B661F771F881F991F1A9469F760956E
:101600007095809590959B01AC01BD01CF01089527
:10161000052E97FB1EF400940E941F0B57FD07D068
:101620000E94E60A07FC03D04EF40C941F0B509561
:101630004095309521953F4F4F4F5F4F08959095BE
:101640008095709561957F4F8F4F9F4F08950E94B1
:10165000380BA59F900DB49F900DA49F800D911DF8
:1016600011240895EE0FFF1F0590F491E02D0994C9
:10167000A29FB001B39FC001A39F700D811D1124D3
:10168000911DB29F700D811D1124911D08958F929F
:101690009F92AF92BF92CF92DF92EF92FF92CF9341
:1016A000DF93EC01688179818A819B8161157105E5
:1016B0008105910521F464E279ED8BE597E02DE158
:1016C00033EF41E050E00E94080B49015A019B01B1
:1016D000AC01A7EAB1E40E94270B6B017C01ACEEE0
:1016E000B4EFA50194010E94A70BC60ED71EE81EF9
:1016F000F91EF7FE06C081E0C81AD108E10880E8AB
:10170000F80AC882D982EA82FB82C701B6019F77B4
:10171000DF91CF91FF90EF90DF90CF90BF90AF908F
:101720009F908F9008950E94470B089586E091E066
:101730000E94470B08956093060170930701809300
:101740000801909309010895B7FF0C94270B0E949C
:0C175000270B821B930B0895F894FFCF29
:10175C0000003202800001000000581B0000002431
:10176C00F449809FD54A007C92490050C3470153ED
:10177C00004F004C005400520051005700430053DE
:10178C0074617274696E672E2E2E000000000016B4
:10179C000682079805B105A305F4050D0A006E61D4
:0A17AC006E00696E66006F7666003D
:00000001FF
