:100000000C9462000C948A000C948A000C948A0070
:100010000C948A000C948A000C948A000C948A0038
:100020000C948A000C948A000C948A000C948A0028
:100030000C948A000C948A000C948A000C948A0018
:100040000C9402040C948A000C94D0030C94AA0320
:100050000C948A000C948A000C948A000C948A00F8
:100060000C948A000C948A000000000024002700F1
:100070002A0000000000250028002B0000000000DE
:1000800023002600290004040404040404040202DA
:100090000202020203030303030301020408102007
:1000A0004080010204081020010204081020000012
:1000B0000008000201000003040700000000000027
:1000C0000000D90711241FBECFEFD8E0DEBFCDBF9F
:1000D00011E0A0E0B1E0E6E0F4E102C005900D928D
:1000E000A434B107D9F722E0A4E4B1E001C01D9225
:1000F000AA31B207E1F710E0C2E6D0E004C02197D0
:10010000FE010E940608C136D107C9F70E944C04BF
:100110000C94010A0C9400002FB7F8948091790197
:1001200090917A01A0917B01B0917C012FBF8093C7
:10013000850190938601A0938701B0938801E09197
:100140007D01F0917E010084F185E02D8DE791E045
:10015000099597FF26C02FB7F89480917901909167
:100160007A01A0917B01B0917C012FBF4091850164
:10017000509186016091870170918801841B950BD5
:10018000A60BB70B409181015091820160918301D0
:100190007091840184179507A607B70780F28FEF47
:1001A0009FEF08958F929F92AF92BF92CF92DF926E
:1001B000EF92FF92CF93DF930E948C00FC0197FD9A
:1001C00014C08D329105A9F0C0970A9790F0EE32D5
:1001D000F10579F0E0917D01F0917E010680F781D3
:1001E000E02D8DE791E00995E7CF60E070E0CB016D
:1001F00073C0812C912C80E8A82E8FE3B82EC12CDF
:10020000D12C7601C0E0D0E0E130F10569F1ED32AA
:10021000F10539F1EE32F10531F1CF01C0970A97BE
:1002200018F5AAE0B0E0A70196010E94BD096F0190
:10023000FF0FEE08FF08C60ED71EE81EF91E80E36A
:10024000C81AD108E108F108CC2371F02DEC3CEC80
:100250004CEC5DE3C501B4010E94E0084B015C0178
:1002600003C0D1E001C0C1E0E0917D01F0917E01C9
:100270000680F781E02D8DE791E009950E948C00C2
:10028000FC01C0970A9708F4BFCFEE32F10519F4CC
:10029000C1111FC0B9CFE130F10509F4B5CFDD239D
:1002A00041F0F094E094D094C094C11CD11CE11CA6
:1002B000F11CCC2349F0C701B6010E94A508A50195
:1002C00094010E94E00808C0C701B6010E94A50879
:1002D00003C0D111E6CFEFCFDF91CF91FF90EF9028
:1002E000DF90CF90BF90AF909F908F900895CF9266
:1002F000DF92EF92FF920F931F93CF93DF936C01E6
:100300007A018B01C0E0D0E0CE15DF0589F0D8017D
:100310006D918D01D601ED91FC910190F081E02D60
:10032000C6010995892B11F47E0102C02196ECCFFC
:10033000C701DF91CF911F910F91FF90EF90DF9058
:10034000CF900895FC01918D828D981761F0828D78
:10035000DF01A80FB11D5D968C91928D9F5F9F73F9
:10036000928F90E008958FEF9FEF0895FC01918D9B
:10037000828D981731F0828DE80FF11D858D90E008
:1003800008958FEF9FEF0895FC01918D228D892FA5
:1003900090E0805C9F4F821B91098F73992708958D
:1003A0008DE791E00E94C40121E0892B09F420E04F
:1003B000822F0895FC01848DDF01A80FB11DA35A7F
:1003C000BF4F2C91848D90E001968F739927848F75
:1003D000A689B7892C93A089B1898C9180648C936C
:1003E000938D848D981306C00288F389E02D808157
:1003F0008F7D80830895EF92FF920F931F93CF9389
:10040000DF93EC0181E0888F9B8D8C8D981305C064
:10041000E889F989808185FD24C0F62E0B8D10E0D6
:100420000F5F1F4F0F731127E02E8C8DE8120CC049
:100430000FB607FCFACFE889F989808185FFF5CFEF
:10044000CE010E94DA01F1CF8B8DFE01E80FF11D84
:10045000E35AFF4FF0820B8FEA89FB89808180622B
:1004600007C0EE89FF896083E889F989808180640B
:10047000808381E090E0DF91CF911F910F91FF90F9
:10048000EF900895CF93DF93EC01888D8823C9F016
:10049000EA89FB89808185FD05C0A889B9898C918D
:1004A00086FD0FC00FB607FCF5CF808185FFF2CF28
:1004B000A889B9898C9185FFEDCFCE010E94DA0120
:1004C000E7CFDF91CF91089580E090E0892B29F06C
:1004D0000E94D00181110C9400000895833081F0B6
:1004E00028F4813099F08230A1F008958730A9F086
:1004F0008830B9F08430D1F4809180008F7D03C0C2
:10050000809180008F7780938000089584B58F77E5
:1005100002C084B58F7D84BD08958091B0008F772F
:1005200003C08091B0008F7D8093B0000895CF9379
:10053000DF93282F30E0F901E255FF4F8491F90154
:10054000E656FF4FD491F901EA57FF4FC491CC23EF
:1005500091F081110E946E02EC2FF0E0EE0FFF1F70
:10056000E458FF4FA591B491EC91ED2381E090E028
:1005700021F480E002C080E090E0DF91CF91089507
:100580001F93CF93DF93282F30E0F901E255FF4FFF
:100590008491F901E656FF4FD491F901EA57FF4FD4
:1005A000C491CC23C9F0162F81110E946E02EC2F4A
:1005B000F0E0EE0FFF1FEE58FF4FA591B4918FB7FB
:1005C000F894111105C09C91ED2FE095E92302C02C
:1005D000EC91ED2BEC938FBFDF91CF911F9108959C
:1005E000CF93DF9390E0FC01E656FF4F2491FC018E
:1005F000EA57FF4F8491882361F190E0880F991F9B
:10060000FC01E859FF4FC591D491FC01EE58FF4F12
:10061000A591B491611109C09FB7F8948881209584
:1006200082238883EC912E230BC0623061F49FB744
:10063000F8943881822F809583238883EC912E2B28
:100640002C939FBF06C08FB7F894E8812E2B288388
:100650008FBFDF91CF9108953FB7F8948091450106
:1006600090914601A0914701B091480126B5A89B01
:1006700005C02F3F19F00196A11DB11D3FBFBA2F34
:10068000A92F982F8827820F911DA11DB11DBC0194
:10069000CD0142E0660F771F881F991F4A95D1F759
:1006A0000895009769F0FC0101900020E9F7319767
:1006B000AF01481B590BBC018DE791E00C94770109
:1006C00080E090E008950C945103CF92DF92EF9276
:1006D000FF920F931F93CF93DF93CDB7DEB7A19710
:1006E0000FB6F894DEBF0FBECDBF9B01AC0119A2BF
:1006F0008E010F5D1F4F8AE0C82ED12CE12CF12C0A
:10070000CA01B901A70196010E94D009605DF801F4
:1007100062938F01211531054105510589F7CF01FC
:100720000E9451038C0184E291E00E945103800FEA
:10073000911FA1960FB6F894DEBF0FBECDBFDF911B
:10074000CF911F910F91FF90EF90DF90CF90089580
:100750000E9442081F920F920FB60F9211242F93FE
:100760003F934F935F936F937F938F939F93AF9339
:10077000BF93EF93FF938DE791E00E94DA01FF9121
:10078000EF91BF91AF919F918F917F916F915F9109
:100790004F913F912F910F900FBE0F901F90189582
:1007A0001F920F920FB60F9211242F938F939F9346
:1007B000EF93FF93E0918D01F0918E018081E091A4
:1007C0009301F091940182FD12C090818091960175
:1007D0008F5F8F7320919701821751F0E0919601FE
:1007E000F0E0E358FE4F958F8093960101C0808121
:1007F000FF91EF919F918F912F910F900FBE0F90CE
:100800001F9018951F920F920FB60F9211242F93DD
:100810003F938F939F93AF93BF9380917901909172
:100820007A01A0917B01B0917C013091440123E0D9
:10083000230F2D3720F40196A11DB11D05C026E818
:10084000230F0296A11DB11D2093440180937901CD
:1008500090937A01A0937B01B0937C018091450134
:1008600090914601A0914701B09148010196A11DC8
:10087000B11D8093450190934601A0934701B09329
:100880004801BF91AF919F918F913F912F910F9010
:100890000FBE0F901F901895789484B5826084BD28
:1008A00084B5816084BD85B5826085BD85B5816074
:1008B00085BD80916E00816080936E0010928100F2
:1008C00080918100826080938100809181008160AD
:1008D000809381008091800081608093800080916E
:1008E000B10084608093B1008091B00081608093FA
:1008F000B00080917A00846080937A0080917A00C1
:10090000826080937A0080917A00816080937A007F
:1009100080917A00806880937A001092C10060E034
:1009200082E00E94F00261E085E00E94F00260E057
:1009300083E00E94F00261E089E00E94F00261E041
:1009400088E00E94F002E0918D01F0918E0182E03A
:100950008083E0918901F0918A011082E0918B01FE
:10096000F0918C018FEC808310929501E0919101C0
:10097000F091920186E08083E0918F01F0919001E7
:10098000808180618083E0918F01F091900180816E
:1009900088608083E0918F01F09190018081806870
:1009A0008083E0918F01F091900180818F7D808321
:1009B00087E291E00E94510384E291E00E9451039A
:1009C00084E291E00E945103E0917D01F0917E016B
:1009D0000190F081E02D61E68DE791E0099584E2D8
:1009E00091E00E9451038DE791E00E94A2018136BF
:1009F000D1F78DE791E00E9442028DE791E00E94DD
:100A0000C40118161906CCF70E94D20060930C019D
:100A100070930D0180930E0190930F010E94D200FC
:100A2000609308017093090180930A0190930B0170
:100A30000E94D20060930401709305018093060127
:100A4000909307010E94D20060930001709301010E
:100A5000809302019093030180E480937C00809155
:100A60007A00806480937A0080917A0086FDFCCFC2
:100A7000609178008091790070E0782B072E000C4F
:100A8000880B990B611571058105910511F00E9484
:100A90009A0883E0282E312CC1E0D0E090E2492E64
:100AA00091EA592E97E0692E712C02E010E08091B6
:100AB0007701909178018230910509F47BC034F47C
:100AC000009761F0019709F464C006C28330910574
:100AD00009F48BC0049709F4D2C1FEC10E942C0313
:100AE0006093730170937401809375019093760104
:100AF0000E949508A30192010E949E094B015C018E
:100B000060936F01709370018093710190937201F3
:100B100082E00E949702019751F40E942C03609397
:100B200073017093740180937501909376010E9414
:100B30002C03C0907301D0907401E0907501F09087
:100B400076019B01AC012C193D094E095F09690131
:100B50007A0120E034E244E759E460910C0170919D
:100B60000D0180910E0190910F010E94E0080E94FA
:100B70000C08DC01CB01880D991DAA1DBB1D8C152D
:100B80009D05AE05BF0520F6D0937801C09377018F
:100B90000BC28DE791E00E94A20190936E018093B9
:100BA0006D01C097029708F097C1109378010093E8
:100BB000770192C183E00E94970290936C01809329
:100BC0006B01019709F088C183E391E00E94630300
:100BD0000E942C030E9465033092780120927701D5
:100BE00010926A011092690177C182E00E94970217
:100BF0007C018091670190916801E816F90651F037
:100C00000E942C03609363017093640180936501DB
:100C10009093660183E00E94970290936C01809309
:100C20006B01009759F480916101909162010197E5
:100C300079F1D0936A01C09369012AC0019741F507
:100C40008091610190916201019711F1C090690159
:100C5000D0906A0131E0C316D104D1F40E942C0374
:100C600060935D0170935E0180935F0190936001DA
:100C7000D0926201C092610185E391E00E9463031A
:100C80000E942C030E94650310926A011092690170
:100C90000E942C038090630190906401A0906501F4
:100CA000B0906601DC01CB0188199909AA09BB093A
:100CB00081329E44A105B10558F180915B0190916C
:100CC0005C01E816F90621F1F0925C01E0925B010B
:100CD0006E2D88E00E94C00231E0E316F104C1F4F9
:100CE00087E391E00E9463030E942C030E94650346
:100CF0000E942C0380905D0190905E01A0905F01A6
:100D0000B0906001681579058A059B0509F0E7C078
:100D1000F0926801E0926701E0905301F090540175
:100D200031E0E316F10409F043C08091490190914C
:100D30004A01892BE9F50E942C0380904F01909085
:100D40005001A0905101B09052019B01AC012819B3
:100D500039094A095B0949015A0120E034E244E7B4
:100D600059E4609108017091090180910A01909104
:100D70000B010E94E0080E940C08681579058A059D
:100D80009B0550F660E085E00E94C00260E089E0CB
:100D90000E94C0020E942C0360934B0170934C018F
:100DA00080934D0190934E01F0924A01E0924901E7
:100DB0000E942C03C0905D01D0905E01E0905F0125
:100DC000F09060019B01AC012C193D094E095F09AF
:100DD00069017A0120E034E244E759E460910401BA
:100DE0007091050180910601909107010E94E00831
:100DF0000E940C08C616D706E806F90608F46CC06F
:100E00008091610190916201019709F065C0BEC0B7
:100E10000E942C03C0905501D0905601E0905701DC
:100E2000F09058019B01AC012C193D094E095F0956
:100E300069017A0120E034E244E759E4609100015D
:100E40007091010180910201909103010E94E008DC
:100E50000E940C086C157D058E059F0580F48DE3BE
:100E600091E00E9463030E942C030E94650310928C
:100E70005A011092590110927801109277018091D5
:100E8000590190915A01019719F28091490190916D
:100E90004A010197B9F48FE391E00E9463036091E6
:100EA0004B0170914C0180914D0190914E010E9437
:100EB000650310924A011092490110925401109258
:100EC0005301E3CF8091590190915A01019721F08C
:100ED00010927801109277010E946402E8CD0E947E
:100EE0002C03DC01CB0188199909AA09BB098038B8
:100EF0009F44A241B10508F00BCF80916D01909104
:100F00006E01C097B1F489E391E00E9463030E94EF
:100F10002C030E946503F0925A01E09259010E944D
:100F20002C03609355017093560180935701909361
:100F3000580180916D0190916E01C19709F0E8CE42
:100F40008091530190915401892B09F0E1CE8BE3FC
:100F500091E00E9463030E942C030E94650361E0FC
:100F600085E00E94C00261E089E00E94C0020E9408
:100F70002C0360934F017093500180935101909323
:100F80005201D0935401C0935301C2CE44E050E0CB
:100F900050937801409377011092620110926101A1
:100FA00081E491E00E9463030E942C030E94650388
:100FB00093CFEDE7F1E01382128288EE93E0A0E098
:100FC000B0E084839583A683B78388E191E0918321
:100FD000808385EC90E09587848784EC90E0978708
:100FE000868780EC90E0918B808B81EC90E0938BF6
:100FF000828B82EC90E0958B848B86EC90E0978BD3
:10100000868B118E128E138E148E0895EE0FFF1F95
:101010000590F491E02D09940E9413086894B11191
:101020000C94980908950E947D0988F09F5798F0C4
:10103000B92F9927B751B0F0E1F0660F771F881FDD
:10104000991F1AF0BA95C9F714C0B13091F00E94F7
:101050009709B1E008950C949709672F782F882796
:10106000B85F39F0B93FCCF3869577956795B3951E
:10107000D9F73EF490958095709561957F4F8F4F8D
:101080009F4F089581E090E0F8940C94010A8F92AC
:101090009F92AF92BF92CF92DF92EF92FF92CF9347
:1010A000DF93EC01688179818A819B8161157105EB
:1010B0008105910521F464E279ED8BE597E02DE15E
:1010C00033EF41E050E00E949E0949015A019B0123
:1010D000AC01A7EAB1E40E94BD096B017C01ACEE52
:1010E000B4EFA50194010E94CB09DC01CB018C0D6A
:1010F0009D1DAE1DBF1DB7FF03C00197A109B048DC
:1011000088839983AA83BB83BC01CD019F77DF913C
:10111000CF91FF90EF90DF90CF90BF90AF909F90D6
:101120008F9008950E944708089580E191E00E9401
:101130004708089560931001709311018093120184
:10114000909313010895E89409C097FB3EF490959D
:101150008095709561957F4F8F4F9F4F9923A9F090
:10116000F92F96E9BB279395F6958795779567951F
:10117000B795F111F8CFFAF4BB0F11F460FF1BC063
:101180006F5F7F4F8F4F9F4F16C0882311F096E9F6
:1011900011C0772321F09EE8872F762F05C06623A4
:1011A00071F096E8862F70E060E02AF09A95660F5D
:1011B000771F881FDAF7880F9695879597F9089516
:1011C0000E94F3080C9464090E94560938F00E94AA
:1011D0005D0920F0952311F00C944D090C945309EE
:1011E00011240C9498090E94750970F3959FC1F31E
:1011F000950F50E0551F629FF001729FBB27F00DC5
:10120000B11D639FAA27F00DB11DAA1F649F662719
:10121000B00DA11D661F829F2227B00DA11D621F68
:10122000739FB00DA11D621F839FA00D611D221F22
:10123000749F3327A00D611D231F849F600D211D06
:10124000822F762F6A2F11249F5750409AF0F1F089
:1012500088234AF0EE0FFF1FBB1F661F771F881FF2
:1012600091505040A9F79E3F510580F00C944D09D4
:101270000C9498095F3FE4F3983ED4F386957795F4
:101280006795B795F795E7959F5FC1F7FE2B880F98
:10129000911D9695879597F9089597F99F6780E82E
:1012A00070E060E008959FEF80EC089500240A94B8
:1012B0001616170618060906089500240A94121631
:1012C0001306140605060895092E0394000C11F464
:1012D000882352F0BB0F40F4BF2B11F460FF04C011
:1012E0006F5F7F4F8F4F9F4F089557FD9058440F6A
:1012F000551F59F05F3F71F04795880F97FB991F75
:1013000061F09F3F79F08795089512161306140631
:10131000551FF2CF4695F1DF08C0161617061806BE
:10132000991FF1CF86957105610508940895E89499
:10133000BB2766277727CB0197F90895052E97FBE2
:101340001EF400940E94B50957FD07D00E94D009F1
:1013500007FC03D04EF40C94B50950954095309598
:1013600021953F4F4F4F5F4F089590958095709511
:1013700061957F4F8F4F9F4F08950E94F209A59F5F
:10138000900DB49F900DA49F800D911D1124089580
:10139000B7FF0C94BD090E94BD09821B930B0895F1
:1013A000A1E21A2EAA1BBB1BFD010DC0AA1FBB1F69
:1013B000EE1FFF1FA217B307E407F50720F0A21BDB
:1013C000B30BE40BF50B661F771F881F991F1A9448
:1013D00069F760957095809590959B01AC01BD0172
:1013E000CF010895A29FB001B39FC001A39F700DCC
:1013F000811D1124911DB29F700D811D1124911D1D
:061400000895F894FFCFEF
:10140600809FD54A007C92490050C3470024F44986
:101416000100000000000000FB017701C401A201E9
:10142600B60142020D0A005374617274696E672E2A
:101436002E2E0053004F004C00540052005100570E
:04144600004300005F
:00000001FF
